{
	"order.sol": {
		"Order": {
			"abi": [
				{
					"inputs": [
						{
							"internalType": "address",
							"name": "_buyer",
							"type": "address"
						},
						{
							"internalType": "uint256",
							"name": "_cost",
							"type": "uint256"
						}
					],
					"stateMutability": "nonpayable",
					"type": "constructor"
				},
				{
					"inputs": [],
					"name": "buyer",
					"outputs": [
						{
							"internalType": "address",
							"name": "",
							"type": "address"
						}
					],
					"stateMutability": "view",
					"type": "function"
				},
				{
					"inputs": [],
					"name": "cost",
					"outputs": [
						{
							"internalType": "uint256",
							"name": "",
							"type": "uint256"
						}
					],
					"stateMutability": "view",
					"type": "function"
				},
				{
					"inputs": [],
					"name": "courier",
					"outputs": [
						{
							"internalType": "address",
							"name": "",
							"type": "address"
						}
					],
					"stateMutability": "view",
					"type": "function"
				},
				{
					"inputs": [],
					"name": "delivered",
					"outputs": [],
					"stateMutability": "nonpayable",
					"type": "function"
				},
				{
					"inputs": [],
					"name": "owner",
					"outputs": [
						{
							"internalType": "address",
							"name": "",
							"type": "address"
						}
					],
					"stateMutability": "view",
					"type": "function"
				},
				{
					"inputs": [],
					"name": "pay",
					"outputs": [],
					"stateMutability": "payable",
					"type": "function"
				},
				{
					"inputs": [],
					"name": "pickUpPackage",
					"outputs": [],
					"stateMutability": "nonpayable",
					"type": "function"
				},
				{
					"inputs": [],
					"name": "state",
					"outputs": [
						{
							"internalType": "enum Order.State",
							"name": "",
							"type": "uint8"
						}
					],
					"stateMutability": "view",
					"type": "function"
				}
			],
			"devdoc": {
				"kind": "dev",
				"methods": {},
				"version": 1
			},
			"evm": {
				"assembly": "    /* \"order.sol\":60:1351  contract Order {... */\n  mstore(0x40, 0x80)\n    /* \"order.sol\":264:420  constructor( address _buyer, uint256 _cost){... */\n  callvalue\n  dup1\n  iszero\n  tag_1\n  jumpi\n  0x00\n  dup1\n  revert\ntag_1:\n  pop\n  mload(0x40)\n  sub(codesize, bytecodeSize)\n  dup1\n  bytecodeSize\n  dup4\n  codecopy\n  dup2\n  dup2\n  add\n  0x40\n  mstore\n  dup2\n  add\n  swap1\n  tag_2\n  swap2\n  swap1\n  tag_3\n  jump\t// in\ntag_2:\n    /* \"order.sol\":325:335  msg.sender */\n  caller\n    /* \"order.sol\":317:322  owner */\n  0x00\n  dup1\n    /* \"order.sol\":317:335  owner = msg.sender */\n  0x0100\n  exp\n  dup2\n  sload\n  dup2\n  0xffffffffffffffffffffffffffffffffffffffff\n  mul\n  not\n  and\n  swap1\n  dup4\n  0xffffffffffffffffffffffffffffffffffffffff\n  and\n  mul\n  or\n  swap1\n  sstore\n  pop\n    /* \"order.sol\":353:359  _buyer */\n  dup2\n    /* \"order.sol\":345:350  buyer */\n  0x01\n  0x00\n    /* \"order.sol\":345:359  buyer = _buyer */\n  0x0100\n  exp\n  dup2\n  sload\n  dup2\n  0xffffffffffffffffffffffffffffffffffffffff\n  mul\n  not\n  and\n  swap1\n  dup4\n  0xffffffffffffffffffffffffffffffffffffffff\n  and\n  mul\n  or\n  swap1\n  sstore\n  pop\n    /* \"order.sol\":376:381  _cost */\n  dup1\n    /* \"order.sol\":369:373  cost */\n  0x03\n    /* \"order.sol\":369:381  cost = _cost */\n  dup2\n  swap1\n  sstore\n  pop\n    /* \"order.sol\":399:412  State.CREATED */\n  0x00\n    /* \"order.sol\":391:396  state */\n  0x04\n  0x00\n    /* \"order.sol\":391:412  state = State.CREATED */\n  0x0100\n  exp\n  dup2\n  sload\n  dup2\n  0xff\n  mul\n  not\n  and\n  swap1\n  dup4\n  0x03\n  dup2\n  gt\n  iszero\n  tag_6\n  jumpi\n  tag_7\n  tag_8\n  jump\t// in\ntag_7:\ntag_6:\n  mul\n  or\n  swap1\n  sstore\n  pop\n    /* \"order.sol\":264:420  constructor( address _buyer, uint256 _cost){... */\n  pop\n  pop\n    /* \"order.sol\":60:1351  contract Order {... */\n  jump(tag_9)\n    /* \"#utility.yul\":88:205   */\ntag_11:\n    /* \"#utility.yul\":197:198   */\n  0x00\n    /* \"#utility.yul\":194:195   */\n  dup1\n    /* \"#utility.yul\":187:199   */\n  revert\n    /* \"#utility.yul\":334:460   */\ntag_13:\n    /* \"#utility.yul\":371:378   */\n  0x00\n    /* \"#utility.yul\":411:453   */\n  0xffffffffffffffffffffffffffffffffffffffff\n    /* \"#utility.yul\":404:409   */\n  dup3\n    /* \"#utility.yul\":400:454   */\n  and\n    /* \"#utility.yul\":389:454   */\n  swap1\n  pop\n    /* \"#utility.yul\":334:460   */\n  swap2\n  swap1\n  pop\n  jump\t// out\n    /* \"#utility.yul\":466:562   */\ntag_14:\n    /* \"#utility.yul\":503:510   */\n  0x00\n    /* \"#utility.yul\":532:556   */\n  tag_26\n    /* \"#utility.yul\":550:555   */\n  dup3\n    /* \"#utility.yul\":532:556   */\n  tag_13\n  jump\t// in\ntag_26:\n    /* \"#utility.yul\":521:556   */\n  swap1\n  pop\n    /* \"#utility.yul\":466:562   */\n  swap2\n  swap1\n  pop\n  jump\t// out\n    /* \"#utility.yul\":568:690   */\ntag_15:\n    /* \"#utility.yul\":641:665   */\n  tag_28\n    /* \"#utility.yul\":659:664   */\n  dup2\n    /* \"#utility.yul\":641:665   */\n  tag_14\n  jump\t// in\ntag_28:\n    /* \"#utility.yul\":634:639   */\n  dup2\n    /* \"#utility.yul\":631:666   */\n  eq\n    /* \"#utility.yul\":621:684   */\n  tag_29\n  jumpi\n    /* \"#utility.yul\":680:681   */\n  0x00\n    /* \"#utility.yul\":677:678   */\n  dup1\n    /* \"#utility.yul\":670:682   */\n  revert\n    /* \"#utility.yul\":621:684   */\ntag_29:\n    /* \"#utility.yul\":568:690   */\n  pop\n  jump\t// out\n    /* \"#utility.yul\":696:839   */\ntag_16:\n    /* \"#utility.yul\":753:758   */\n  0x00\n    /* \"#utility.yul\":784:790   */\n  dup2\n    /* \"#utility.yul\":778:791   */\n  mload\n    /* \"#utility.yul\":769:791   */\n  swap1\n  pop\n    /* \"#utility.yul\":800:833   */\n  tag_31\n    /* \"#utility.yul\":827:832   */\n  dup2\n    /* \"#utility.yul\":800:833   */\n  tag_15\n  jump\t// in\ntag_31:\n    /* \"#utility.yul\":696:839   */\n  swap3\n  swap2\n  pop\n  pop\n  jump\t// out\n    /* \"#utility.yul\":845:922   */\ntag_17:\n    /* \"#utility.yul\":882:889   */\n  0x00\n    /* \"#utility.yul\":911:916   */\n  dup2\n    /* \"#utility.yul\":900:916   */\n  swap1\n  pop\n    /* \"#utility.yul\":845:922   */\n  swap2\n  swap1\n  pop\n  jump\t// out\n    /* \"#utility.yul\":928:1050   */\ntag_18:\n    /* \"#utility.yul\":1001:1025   */\n  tag_34\n    /* \"#utility.yul\":1019:1024   */\n  dup2\n    /* \"#utility.yul\":1001:1025   */\n  tag_17\n  jump\t// in\ntag_34:\n    /* \"#utility.yul\":994:999   */\n  dup2\n    /* \"#utility.yul\":991:1026   */\n  eq\n    /* \"#utility.yul\":981:1044   */\n  tag_35\n  jumpi\n    /* \"#utility.yul\":1040:1041   */\n  0x00\n    /* \"#utility.yul\":1037:1038   */\n  dup1\n    /* \"#utility.yul\":1030:1042   */\n  revert\n    /* \"#utility.yul\":981:1044   */\ntag_35:\n    /* \"#utility.yul\":928:1050   */\n  pop\n  jump\t// out\n    /* \"#utility.yul\":1056:1199   */\ntag_19:\n    /* \"#utility.yul\":1113:1118   */\n  0x00\n    /* \"#utility.yul\":1144:1150   */\n  dup2\n    /* \"#utility.yul\":1138:1151   */\n  mload\n    /* \"#utility.yul\":1129:1151   */\n  swap1\n  pop\n    /* \"#utility.yul\":1160:1193   */\n  tag_37\n    /* \"#utility.yul\":1187:1192   */\n  dup2\n    /* \"#utility.yul\":1160:1193   */\n  tag_18\n  jump\t// in\ntag_37:\n    /* \"#utility.yul\":1056:1199   */\n  swap3\n  swap2\n  pop\n  pop\n  jump\t// out\n    /* \"#utility.yul\":1205:1712   */\ntag_3:\n    /* \"#utility.yul\":1284:1290   */\n  0x00\n    /* \"#utility.yul\":1292:1298   */\n  dup1\n    /* \"#utility.yul\":1341:1343   */\n  0x40\n    /* \"#utility.yul\":1329:1338   */\n  dup4\n    /* \"#utility.yul\":1320:1327   */\n  dup6\n    /* \"#utility.yul\":1316:1339   */\n  sub\n    /* \"#utility.yul\":1312:1344   */\n  slt\n    /* \"#utility.yul\":1309:1428   */\n  iszero\n  tag_39\n  jumpi\n    /* \"#utility.yul\":1347:1426   */\n  tag_40\n  tag_11\n  jump\t// in\ntag_40:\n    /* \"#utility.yul\":1309:1428   */\ntag_39:\n    /* \"#utility.yul\":1467:1468   */\n  0x00\n    /* \"#utility.yul\":1492:1556   */\n  tag_41\n    /* \"#utility.yul\":1548:1555   */\n  dup6\n    /* \"#utility.yul\":1539:1545   */\n  dup3\n    /* \"#utility.yul\":1528:1537   */\n  dup7\n    /* \"#utility.yul\":1524:1546   */\n  add\n    /* \"#utility.yul\":1492:1556   */\n  tag_16\n  jump\t// in\ntag_41:\n    /* \"#utility.yul\":1482:1556   */\n  swap3\n  pop\n    /* \"#utility.yul\":1438:1566   */\n  pop\n    /* \"#utility.yul\":1605:1607   */\n  0x20\n    /* \"#utility.yul\":1631:1695   */\n  tag_42\n    /* \"#utility.yul\":1687:1694   */\n  dup6\n    /* \"#utility.yul\":1678:1684   */\n  dup3\n    /* \"#utility.yul\":1667:1676   */\n  dup7\n    /* \"#utility.yul\":1663:1685   */\n  add\n    /* \"#utility.yul\":1631:1695   */\n  tag_19\n  jump\t// in\ntag_42:\n    /* \"#utility.yul\":1621:1695   */\n  swap2\n  pop\n    /* \"#utility.yul\":1576:1705   */\n  pop\n    /* \"#utility.yul\":1205:1712   */\n  swap3\n  pop\n  swap3\n  swap1\n  pop\n  jump\t// out\n    /* \"#utility.yul\":1718:1898   */\ntag_8:\n    /* \"#utility.yul\":1766:1843   */\n  0x4e487b7100000000000000000000000000000000000000000000000000000000\n    /* \"#utility.yul\":1763:1764   */\n  0x00\n    /* \"#utility.yul\":1756:1844   */\n  mstore\n    /* \"#utility.yul\":1863:1867   */\n  0x21\n    /* \"#utility.yul\":1860:1861   */\n  0x04\n    /* \"#utility.yul\":1853:1868   */\n  mstore\n    /* \"#utility.yul\":1887:1891   */\n  0x24\n    /* \"#utility.yul\":1884:1885   */\n  0x00\n    /* \"#utility.yul\":1877:1892   */\n  revert\n    /* \"order.sol\":60:1351  contract Order {... */\ntag_9:\n  dataSize(sub_0)\n  dup1\n  dataOffset(sub_0)\n  0x00\n  codecopy\n  0x00\n  return\nstop\n\nsub_0: assembly {\n        /* \"order.sol\":60:1351  contract Order {... */\n      mstore(0x40, 0x80)\n      jumpi(tag_1, lt(calldatasize, 0x04))\n      shr(0xe0, calldataload(0x00))\n      dup1\n      0x7150d8ae\n      gt\n      tag_10\n      jumpi\n      dup1\n      0x7150d8ae\n      eq\n      tag_6\n      jumpi\n      dup1\n      0x8da5cb5b\n      eq\n      tag_7\n      jumpi\n      dup1\n      0xbbdfbfba\n      eq\n      tag_8\n      jumpi\n      dup1\n      0xc19d93fb\n      eq\n      tag_9\n      jumpi\n      jump(tag_1)\n    tag_10:\n      dup1\n      0x13faede6\n      eq\n      tag_2\n      jumpi\n      dup1\n      0x1b9265b8\n      eq\n      tag_3\n      jumpi\n      dup1\n      0x34791416\n      eq\n      tag_4\n      jumpi\n      dup1\n      0x50a7f7d3\n      eq\n      tag_5\n      jumpi\n    tag_1:\n      0x00\n      dup1\n      revert\n        /* \"order.sol\":161:180  uint256 public cost */\n    tag_2:\n      callvalue\n      dup1\n      iszero\n      tag_11\n      jumpi\n      0x00\n      dup1\n      revert\n    tag_11:\n      pop\n      tag_12\n      tag_13\n      jump\t// in\n    tag_12:\n      mload(0x40)\n      tag_14\n      swap2\n      swap1\n      tag_15\n      jump\t// in\n    tag_14:\n      mload(0x40)\n      dup1\n      swap2\n      sub\n      swap1\n      return\n        /* \"order.sol\":742:971  function pay() external onlyBuyer payable {... */\n    tag_3:\n      tag_16\n      tag_17\n      jump\t// in\n    tag_16:\n      stop\n        /* \"order.sol\":549:736  function pickUpPackage() external{... */\n    tag_4:\n      callvalue\n      dup1\n      iszero\n      tag_18\n      jumpi\n      0x00\n      dup1\n      revert\n    tag_18:\n      pop\n      tag_19\n      tag_20\n      jump\t// in\n    tag_19:\n      stop\n        /* \"order.sol\":133:155  address public courier */\n    tag_5:\n      callvalue\n      dup1\n      iszero\n      tag_21\n      jumpi\n      0x00\n      dup1\n      revert\n    tag_21:\n      pop\n      tag_22\n      tag_23\n      jump\t// in\n    tag_22:\n      mload(0x40)\n      tag_24\n      swap2\n      swap1\n      tag_25\n      jump\t// in\n    tag_24:\n      mload(0x40)\n      dup1\n      swap2\n      sub\n      swap1\n      return\n        /* \"order.sol\":107:127  address public buyer */\n    tag_6:\n      callvalue\n      dup1\n      iszero\n      tag_26\n      jumpi\n      0x00\n      dup1\n      revert\n    tag_26:\n      pop\n      tag_27\n      tag_28\n      jump\t// in\n    tag_27:\n      mload(0x40)\n      tag_29\n      swap2\n      swap1\n      tag_25\n      jump\t// in\n    tag_29:\n      mload(0x40)\n      dup1\n      swap2\n      sub\n      swap1\n      return\n        /* \"order.sol\":81:101  address public owner */\n    tag_7:\n      callvalue\n      dup1\n      iszero\n      tag_30\n      jumpi\n      0x00\n      dup1\n      revert\n    tag_30:\n      pop\n      tag_31\n      tag_32\n      jump\t// in\n    tag_31:\n      mload(0x40)\n      tag_33\n      swap2\n      swap1\n      tag_25\n      jump\t// in\n    tag_33:\n      mload(0x40)\n      dup1\n      swap2\n      sub\n      swap1\n      return\n        /* \"order.sol\":977:1349  function delivered() external onlyBuyer{... */\n    tag_8:\n      callvalue\n      dup1\n      iszero\n      tag_34\n      jumpi\n      0x00\n      dup1\n      revert\n    tag_34:\n      pop\n      tag_35\n      tag_36\n      jump\t// in\n    tag_35:\n      stop\n        /* \"order.sol\":239:257  State public state */\n    tag_9:\n      callvalue\n      dup1\n      iszero\n      tag_37\n      jumpi\n      0x00\n      dup1\n      revert\n    tag_37:\n      pop\n      tag_38\n      tag_39\n      jump\t// in\n    tag_38:\n      mload(0x40)\n      tag_40\n      swap2\n      swap1\n      tag_41\n      jump\t// in\n    tag_40:\n      mload(0x40)\n      dup1\n      swap2\n      sub\n      swap1\n      return\n        /* \"order.sol\":161:180  uint256 public cost */\n    tag_13:\n      sload(0x03)\n      dup2\n      jump\t// out\n        /* \"order.sol\":742:971  function pay() external onlyBuyer payable {... */\n    tag_17:\n        /* \"order.sol\":478:483  buyer */\n      0x01\n      0x00\n      swap1\n      sload\n      swap1\n      0x0100\n      exp\n      swap1\n      div\n      0xffffffffffffffffffffffffffffffffffffffff\n      and\n        /* \"order.sol\":464:483  msg.sender == buyer */\n      0xffffffffffffffffffffffffffffffffffffffff\n      and\n        /* \"order.sol\":464:474  msg.sender */\n      caller\n        /* \"order.sol\":464:483  msg.sender == buyer */\n      0xffffffffffffffffffffffffffffffffffffffff\n      and\n      eq\n        /* \"order.sol\":456:525  require(msg.sender == buyer,\"Caller of this function must be buyer.\") */\n      tag_43\n      jumpi\n      mload(0x40)\n      0x08c379a000000000000000000000000000000000000000000000000000000000\n      dup2\n      mstore\n      0x04\n      add\n      tag_44\n      swap1\n      tag_45\n      jump\t// in\n    tag_44:\n      mload(0x40)\n      dup1\n      swap2\n      sub\n      swap1\n      revert\n    tag_43:\n        /* \"order.sol\":811:824  State.CREATED */\n      0x00\n        /* \"order.sol\":802:824  state == State.CREATED */\n      0x03\n      dup2\n      gt\n      iszero\n      tag_47\n      jumpi\n      tag_48\n      tag_49\n      jump\t// in\n    tag_48:\n    tag_47:\n        /* \"order.sol\":802:807  state */\n      0x04\n      0x00\n      swap1\n      sload\n      swap1\n      0x0100\n      exp\n      swap1\n      div\n      0xff\n      and\n        /* \"order.sol\":802:824  state == State.CREATED */\n      0x03\n      dup2\n      gt\n      iszero\n      tag_50\n      jumpi\n      tag_51\n      tag_49\n      jump\t// in\n    tag_51:\n    tag_50:\n      eq\n        /* \"order.sol\":794:858  require(state == State.CREATED, \"Order must unpaid to be paid.\") */\n      tag_52\n      jumpi\n      mload(0x40)\n      0x08c379a000000000000000000000000000000000000000000000000000000000\n      dup2\n      mstore\n      0x04\n      add\n      tag_53\n      swap1\n      tag_54\n      jump\t// in\n    tag_53:\n      mload(0x40)\n      dup1\n      swap2\n      sub\n      swap1\n      revert\n    tag_52:\n        /* \"order.sol\":889:893  cost */\n      sload(0x03)\n        /* \"order.sol\":876:885  msg.value */\n      callvalue\n        /* \"order.sol\":876:893  msg.value == cost */\n      eq\n        /* \"order.sol\":868:936  require(msg.value == cost, \"Payement value mast equal to the cost.\") */\n      tag_55\n      jumpi\n      mload(0x40)\n      0x08c379a000000000000000000000000000000000000000000000000000000000\n      dup2\n      mstore\n      0x04\n      add\n      tag_56\n      swap1\n      tag_57\n      jump\t// in\n    tag_56:\n      mload(0x40)\n      dup1\n      swap2\n      sub\n      swap1\n      revert\n    tag_55:\n        /* \"order.sol\":954:964  State.PAID */\n      0x01\n        /* \"order.sol\":946:951  state */\n      0x04\n      0x00\n        /* \"order.sol\":946:964  state = State.PAID */\n      0x0100\n      exp\n      dup2\n      sload\n      dup2\n      0xff\n      mul\n      not\n      and\n      swap1\n      dup4\n      0x03\n      dup2\n      gt\n      iszero\n      tag_58\n      jumpi\n      tag_59\n      tag_49\n      jump\t// in\n    tag_59:\n    tag_58:\n      mul\n      or\n      swap1\n      sstore\n      pop\n        /* \"order.sol\":742:971  function pay() external onlyBuyer payable {... */\n      jump\t// out\n        /* \"order.sol\":549:736  function pickUpPackage() external{... */\n    tag_20:\n        /* \"order.sol\":609:619  State.PAID */\n      0x01\n        /* \"order.sol\":600:619  state == State.PAID */\n      0x03\n      dup2\n      gt\n      iszero\n      tag_61\n      jumpi\n      tag_62\n      tag_49\n      jump\t// in\n    tag_62:\n    tag_61:\n        /* \"order.sol\":600:605  state */\n      0x04\n      0x00\n      swap1\n      sload\n      swap1\n      0x0100\n      exp\n      swap1\n      div\n      0xff\n      and\n        /* \"order.sol\":600:619  state == State.PAID */\n      0x03\n      dup2\n      gt\n      iszero\n      tag_63\n      jumpi\n      tag_64\n      tag_49\n      jump\t// in\n    tag_64:\n    tag_63:\n      eq\n        /* \"order.sol\":592:666  require(state == State.PAID, \"Order must be paid before being picked up.\") */\n      tag_65\n      jumpi\n      mload(0x40)\n      0x08c379a000000000000000000000000000000000000000000000000000000000\n      dup2\n      mstore\n      0x04\n      add\n      tag_66\n      swap1\n      tag_67\n      jump\t// in\n    tag_66:\n      mload(0x40)\n      dup1\n      swap2\n      sub\n      swap1\n      revert\n    tag_65:\n        /* \"order.sol\":686:696  msg.sender */\n      caller\n        /* \"order.sol\":676:683  courier */\n      0x02\n      0x00\n        /* \"order.sol\":676:696  courier = msg.sender */\n      0x0100\n      exp\n      dup2\n      sload\n      dup2\n      0xffffffffffffffffffffffffffffffffffffffff\n      mul\n      not\n      and\n      swap1\n      dup4\n      0xffffffffffffffffffffffffffffffffffffffff\n      and\n      mul\n      or\n      swap1\n      sstore\n      pop\n        /* \"order.sol\":714:729  State.PICKED_UP */\n      0x02\n        /* \"order.sol\":706:711  state */\n      0x04\n      0x00\n        /* \"order.sol\":706:729  state = State.PICKED_UP */\n      0x0100\n      exp\n      dup2\n      sload\n      dup2\n      0xff\n      mul\n      not\n      and\n      swap1\n      dup4\n      0x03\n      dup2\n      gt\n      iszero\n      tag_68\n      jumpi\n      tag_69\n      tag_49\n      jump\t// in\n    tag_69:\n    tag_68:\n      mul\n      or\n      swap1\n      sstore\n      pop\n        /* \"order.sol\":549:736  function pickUpPackage() external{... */\n      jump\t// out\n        /* \"order.sol\":133:155  address public courier */\n    tag_23:\n      0x02\n      0x00\n      swap1\n      sload\n      swap1\n      0x0100\n      exp\n      swap1\n      div\n      0xffffffffffffffffffffffffffffffffffffffff\n      and\n      dup2\n      jump\t// out\n        /* \"order.sol\":107:127  address public buyer */\n    tag_28:\n      0x01\n      0x00\n      swap1\n      sload\n      swap1\n      0x0100\n      exp\n      swap1\n      div\n      0xffffffffffffffffffffffffffffffffffffffff\n      and\n      dup2\n      jump\t// out\n        /* \"order.sol\":81:101  address public owner */\n    tag_32:\n      0x00\n      dup1\n      sload\n      swap1\n      0x0100\n      exp\n      swap1\n      div\n      0xffffffffffffffffffffffffffffffffffffffff\n      and\n      dup2\n      jump\t// out\n        /* \"order.sol\":977:1349  function delivered() external onlyBuyer{... */\n    tag_36:\n        /* \"order.sol\":478:483  buyer */\n      0x01\n      0x00\n      swap1\n      sload\n      swap1\n      0x0100\n      exp\n      swap1\n      div\n      0xffffffffffffffffffffffffffffffffffffffff\n      and\n        /* \"order.sol\":464:483  msg.sender == buyer */\n      0xffffffffffffffffffffffffffffffffffffffff\n      and\n        /* \"order.sol\":464:474  msg.sender */\n      caller\n        /* \"order.sol\":464:483  msg.sender == buyer */\n      0xffffffffffffffffffffffffffffffffffffffff\n      and\n      eq\n        /* \"order.sol\":456:525  require(msg.sender == buyer,\"Caller of this function must be buyer.\") */\n      tag_71\n      jumpi\n      mload(0x40)\n      0x08c379a000000000000000000000000000000000000000000000000000000000\n      dup2\n      mstore\n      0x04\n      add\n      tag_72\n      swap1\n      tag_45\n      jump\t// in\n    tag_72:\n      mload(0x40)\n      dup1\n      swap2\n      sub\n      swap1\n      revert\n    tag_71:\n        /* \"order.sol\":1043:1058  State.PICKED_UP */\n      0x02\n        /* \"order.sol\":1034:1058  state == State.PICKED_UP */\n      0x03\n      dup2\n      gt\n      iszero\n      tag_74\n      jumpi\n      tag_75\n      tag_49\n      jump\t// in\n    tag_75:\n    tag_74:\n        /* \"order.sol\":1034:1039  state */\n      0x04\n      0x00\n      swap1\n      sload\n      swap1\n      0x0100\n      exp\n      swap1\n      div\n      0xff\n      and\n        /* \"order.sol\":1034:1058  state == State.PICKED_UP */\n      0x03\n      dup2\n      gt\n      iszero\n      tag_76\n      jumpi\n      tag_77\n      tag_49\n      jump\t// in\n    tag_77:\n    tag_76:\n      eq\n        /* \"order.sol\":1026:1103  require(state == State.PICKED_UP, \"Order must be picked up to be delivered.\") */\n      tag_78\n      jumpi\n      mload(0x40)\n      0x08c379a000000000000000000000000000000000000000000000000000000000\n      dup2\n      mstore\n      0x04\n      add\n      tag_79\n      swap1\n      tag_80\n      jump\t// in\n    tag_79:\n      mload(0x40)\n      dup1\n      swap2\n      sub\n      swap1\n      revert\n    tag_78:\n        /* \"order.sol\":1122:1136  State.COMPLETE */\n      0x03\n        /* \"order.sol\":1113:1136  state == State.COMPLETE */\n      dup1\n      dup2\n      gt\n      iszero\n      tag_81\n      jumpi\n      tag_82\n      tag_49\n      jump\t// in\n    tag_82:\n    tag_81:\n        /* \"order.sol\":1113:1118  state */\n      0x04\n      0x00\n      swap1\n      sload\n      swap1\n      0x0100\n      exp\n      swap1\n      div\n      0xff\n      and\n        /* \"order.sol\":1113:1136  state == State.COMPLETE */\n      0x03\n      dup2\n      gt\n      iszero\n      tag_83\n      jumpi\n      tag_84\n      tag_49\n      jump\t// in\n    tag_84:\n    tag_83:\n      pop\n      pop\n        /* \"order.sol\":1148:1169  uint256 courierAmount */\n      0x00\n        /* \"order.sol\":1183:1184  5 */\n      0x05\n        /* \"order.sol\":1179:1180  1 */\n      0x01\n        /* \"order.sol\":1172:1176  cost */\n      sload(0x03)\n        /* \"order.sol\":1172:1180  cost * 1 */\n      tag_85\n      swap2\n      swap1\n      tag_86\n      jump\t// in\n    tag_85:\n        /* \"order.sol\":1172:1184  cost * 1 / 5 */\n      tag_87\n      swap2\n      swap1\n      tag_88\n      jump\t// in\n    tag_87:\n        /* \"order.sol\":1148:1184  uint256 courierAmount = cost * 1 / 5 */\n      swap1\n      pop\n        /* \"order.sol\":1194:1213  uint256 ownerAmount */\n      0x00\n        /* \"order.sol\":1223:1236  courierAmount */\n      dup2\n        /* \"order.sol\":1216:1220  cost */\n      sload(0x03)\n        /* \"order.sol\":1216:1236  cost - courierAmount */\n      tag_89\n      swap2\n      swap1\n      tag_90\n      jump\t// in\n    tag_89:\n        /* \"order.sol\":1194:1236  uint256 ownerAmount = cost - courierAmount */\n      swap1\n      pop\n        /* \"order.sol\":1264:1271  courier */\n      0x02\n      0x00\n      swap1\n      sload\n      swap1\n      0x0100\n      exp\n      swap1\n      div\n      0xffffffffffffffffffffffffffffffffffffffff\n      and\n        /* \"order.sol\":1256:1281  payable(courier).transfer */\n      0xffffffffffffffffffffffffffffffffffffffff\n      and\n        /* \"order.sol\":1256:1296  payable(courier).transfer(courierAmount) */\n      0x08fc\n        /* \"order.sol\":1282:1295  courierAmount */\n      dup4\n        /* \"order.sol\":1256:1296  payable(courier).transfer(courierAmount) */\n      swap1\n      dup2\n      iszero\n      mul\n      swap1\n      mload(0x40)\n      0x00\n      mload(0x40)\n      dup1\n      dup4\n      sub\n      dup2\n      dup6\n      dup9\n      dup9\n      call\n      swap4\n      pop\n      pop\n      pop\n      pop\n      iszero\n      dup1\n      iszero\n      tag_92\n      jumpi\n      returndatasize\n      0x00\n      dup1\n      returndatacopy\n      revert(0x00, returndatasize)\n    tag_92:\n      pop\n        /* \"order.sol\":1314:1319  owner */\n      0x00\n      dup1\n      sload\n      swap1\n      0x0100\n      exp\n      swap1\n      div\n      0xffffffffffffffffffffffffffffffffffffffff\n      and\n        /* \"order.sol\":1306:1329  payable(owner).transfer */\n      0xffffffffffffffffffffffffffffffffffffffff\n      and\n        /* \"order.sol\":1306:1342  payable(owner).transfer(ownerAmount) */\n      0x08fc\n        /* \"order.sol\":1330:1341  ownerAmount */\n      dup3\n        /* \"order.sol\":1306:1342  payable(owner).transfer(ownerAmount) */\n      swap1\n      dup2\n      iszero\n      mul\n      swap1\n      mload(0x40)\n      0x00\n      mload(0x40)\n      dup1\n      dup4\n      sub\n      dup2\n      dup6\n      dup9\n      dup9\n      call\n      swap4\n      pop\n      pop\n      pop\n      pop\n      iszero\n      dup1\n      iszero\n      tag_94\n      jumpi\n      returndatasize\n      0x00\n      dup1\n      returndatacopy\n      revert(0x00, returndatasize)\n    tag_94:\n      pop\n        /* \"order.sol\":1016:1349  {... */\n      pop\n      pop\n        /* \"order.sol\":977:1349  function delivered() external onlyBuyer{... */\n      jump\t// out\n        /* \"order.sol\":239:257  State public state */\n    tag_39:\n      0x04\n      0x00\n      swap1\n      sload\n      swap1\n      0x0100\n      exp\n      swap1\n      div\n      0xff\n      and\n      dup2\n      jump\t// out\n        /* \"#utility.yul\":7:84   */\n    tag_95:\n        /* \"#utility.yul\":44:51   */\n      0x00\n        /* \"#utility.yul\":73:78   */\n      dup2\n        /* \"#utility.yul\":62:78   */\n      swap1\n      pop\n        /* \"#utility.yul\":7:84   */\n      swap2\n      swap1\n      pop\n      jump\t// out\n        /* \"#utility.yul\":90:208   */\n    tag_96:\n        /* \"#utility.yul\":177:201   */\n      tag_120\n        /* \"#utility.yul\":195:200   */\n      dup2\n        /* \"#utility.yul\":177:201   */\n      tag_95\n      jump\t// in\n    tag_120:\n        /* \"#utility.yul\":172:175   */\n      dup3\n        /* \"#utility.yul\":165:202   */\n      mstore\n        /* \"#utility.yul\":90:208   */\n      pop\n      pop\n      jump\t// out\n        /* \"#utility.yul\":214:436   */\n    tag_15:\n        /* \"#utility.yul\":307:311   */\n      0x00\n        /* \"#utility.yul\":345:347   */\n      0x20\n        /* \"#utility.yul\":334:343   */\n      dup3\n        /* \"#utility.yul\":330:348   */\n      add\n        /* \"#utility.yul\":322:348   */\n      swap1\n      pop\n        /* \"#utility.yul\":358:429   */\n      tag_122\n        /* \"#utility.yul\":426:427   */\n      0x00\n        /* \"#utility.yul\":415:424   */\n      dup4\n        /* \"#utility.yul\":411:428   */\n      add\n        /* \"#utility.yul\":402:408   */\n      dup5\n        /* \"#utility.yul\":358:429   */\n      tag_96\n      jump\t// in\n    tag_122:\n        /* \"#utility.yul\":214:436   */\n      swap3\n      swap2\n      pop\n      pop\n      jump\t// out\n        /* \"#utility.yul\":442:568   */\n    tag_97:\n        /* \"#utility.yul\":479:486   */\n      0x00\n        /* \"#utility.yul\":519:561   */\n      0xffffffffffffffffffffffffffffffffffffffff\n        /* \"#utility.yul\":512:517   */\n      dup3\n        /* \"#utility.yul\":508:562   */\n      and\n        /* \"#utility.yul\":497:562   */\n      swap1\n      pop\n        /* \"#utility.yul\":442:568   */\n      swap2\n      swap1\n      pop\n      jump\t// out\n        /* \"#utility.yul\":574:670   */\n    tag_98:\n        /* \"#utility.yul\":611:618   */\n      0x00\n        /* \"#utility.yul\":640:664   */\n      tag_125\n        /* \"#utility.yul\":658:663   */\n      dup3\n        /* \"#utility.yul\":640:664   */\n      tag_97\n      jump\t// in\n    tag_125:\n        /* \"#utility.yul\":629:664   */\n      swap1\n      pop\n        /* \"#utility.yul\":574:670   */\n      swap2\n      swap1\n      pop\n      jump\t// out\n        /* \"#utility.yul\":676:794   */\n    tag_99:\n        /* \"#utility.yul\":763:787   */\n      tag_127\n        /* \"#utility.yul\":781:786   */\n      dup2\n        /* \"#utility.yul\":763:787   */\n      tag_98\n      jump\t// in\n    tag_127:\n        /* \"#utility.yul\":758:761   */\n      dup3\n        /* \"#utility.yul\":751:788   */\n      mstore\n        /* \"#utility.yul\":676:794   */\n      pop\n      pop\n      jump\t// out\n        /* \"#utility.yul\":800:1022   */\n    tag_25:\n        /* \"#utility.yul\":893:897   */\n      0x00\n        /* \"#utility.yul\":931:933   */\n      0x20\n        /* \"#utility.yul\":920:929   */\n      dup3\n        /* \"#utility.yul\":916:934   */\n      add\n        /* \"#utility.yul\":908:934   */\n      swap1\n      pop\n        /* \"#utility.yul\":944:1015   */\n      tag_129\n        /* \"#utility.yul\":1012:1013   */\n      0x00\n        /* \"#utility.yul\":1001:1010   */\n      dup4\n        /* \"#utility.yul\":997:1014   */\n      add\n        /* \"#utility.yul\":988:994   */\n      dup5\n        /* \"#utility.yul\":944:1015   */\n      tag_99\n      jump\t// in\n    tag_129:\n        /* \"#utility.yul\":800:1022   */\n      swap3\n      swap2\n      pop\n      pop\n      jump\t// out\n        /* \"#utility.yul\":1028:1208   */\n    tag_49:\n        /* \"#utility.yul\":1076:1153   */\n      0x4e487b7100000000000000000000000000000000000000000000000000000000\n        /* \"#utility.yul\":1073:1074   */\n      0x00\n        /* \"#utility.yul\":1066:1154   */\n      mstore\n        /* \"#utility.yul\":1173:1177   */\n      0x21\n        /* \"#utility.yul\":1170:1171   */\n      0x04\n        /* \"#utility.yul\":1163:1178   */\n      mstore\n        /* \"#utility.yul\":1197:1201   */\n      0x24\n        /* \"#utility.yul\":1194:1195   */\n      0x00\n        /* \"#utility.yul\":1187:1202   */\n      revert\n        /* \"#utility.yul\":1214:1327   */\n    tag_100:\n        /* \"#utility.yul\":1295:1296   */\n      0x04\n        /* \"#utility.yul\":1288:1293   */\n      dup2\n        /* \"#utility.yul\":1285:1297   */\n      lt\n        /* \"#utility.yul\":1275:1321   */\n      tag_132\n      jumpi\n        /* \"#utility.yul\":1301:1319   */\n      tag_133\n      tag_49\n      jump\t// in\n    tag_133:\n        /* \"#utility.yul\":1275:1321   */\n    tag_132:\n        /* \"#utility.yul\":1214:1327   */\n      pop\n      jump\t// out\n        /* \"#utility.yul\":1333:1460   */\n    tag_101:\n        /* \"#utility.yul\":1378:1385   */\n      0x00\n        /* \"#utility.yul\":1407:1412   */\n      dup2\n        /* \"#utility.yul\":1396:1412   */\n      swap1\n      pop\n        /* \"#utility.yul\":1413:1454   */\n      tag_135\n        /* \"#utility.yul\":1448:1453   */\n      dup3\n        /* \"#utility.yul\":1413:1454   */\n      tag_100\n      jump\t// in\n    tag_135:\n        /* \"#utility.yul\":1333:1460   */\n      swap2\n      swap1\n      pop\n      jump\t// out\n        /* \"#utility.yul\":1466:1593   */\n    tag_102:\n        /* \"#utility.yul\":1522:1531   */\n      0x00\n        /* \"#utility.yul\":1555:1587   */\n      tag_137\n        /* \"#utility.yul\":1581:1586   */\n      dup3\n        /* \"#utility.yul\":1555:1587   */\n      tag_101\n      jump\t// in\n    tag_137:\n        /* \"#utility.yul\":1542:1587   */\n      swap1\n      pop\n        /* \"#utility.yul\":1466:1593   */\n      swap2\n      swap1\n      pop\n      jump\t// out\n        /* \"#utility.yul\":1599:1742   */\n    tag_103:\n        /* \"#utility.yul\":1692:1735   */\n      tag_139\n        /* \"#utility.yul\":1729:1734   */\n      dup2\n        /* \"#utility.yul\":1692:1735   */\n      tag_102\n      jump\t// in\n    tag_139:\n        /* \"#utility.yul\":1687:1690   */\n      dup3\n        /* \"#utility.yul\":1680:1736   */\n      mstore\n        /* \"#utility.yul\":1599:1742   */\n      pop\n      pop\n      jump\t// out\n        /* \"#utility.yul\":1748:1982   */\n    tag_41:\n        /* \"#utility.yul\":1847:1851   */\n      0x00\n        /* \"#utility.yul\":1885:1887   */\n      0x20\n        /* \"#utility.yul\":1874:1883   */\n      dup3\n        /* \"#utility.yul\":1870:1888   */\n      add\n        /* \"#utility.yul\":1862:1888   */\n      swap1\n      pop\n        /* \"#utility.yul\":1898:1975   */\n      tag_141\n        /* \"#utility.yul\":1972:1973   */\n      0x00\n        /* \"#utility.yul\":1961:1970   */\n      dup4\n        /* \"#utility.yul\":1957:1974   */\n      add\n        /* \"#utility.yul\":1948:1954   */\n      dup5\n        /* \"#utility.yul\":1898:1975   */\n      tag_103\n      jump\t// in\n    tag_141:\n        /* \"#utility.yul\":1748:1982   */\n      swap3\n      swap2\n      pop\n      pop\n      jump\t// out\n        /* \"#utility.yul\":1988:2157   */\n    tag_104:\n        /* \"#utility.yul\":2072:2083   */\n      0x00\n        /* \"#utility.yul\":2106:2112   */\n      dup3\n        /* \"#utility.yul\":2101:2104   */\n      dup3\n        /* \"#utility.yul\":2094:2113   */\n      mstore\n        /* \"#utility.yul\":2146:2150   */\n      0x20\n        /* \"#utility.yul\":2141:2144   */\n      dup3\n        /* \"#utility.yul\":2137:2151   */\n      add\n        /* \"#utility.yul\":2122:2151   */\n      swap1\n      pop\n        /* \"#utility.yul\":1988:2157   */\n      swap3\n      swap2\n      pop\n      pop\n      jump\t// out\n        /* \"#utility.yul\":2163:2388   */\n    tag_105:\n        /* \"#utility.yul\":2303:2337   */\n      0x43616c6c6572206f6620746869732066756e6374696f6e206d75737420626520\n        /* \"#utility.yul\":2299:2300   */\n      0x00\n        /* \"#utility.yul\":2291:2297   */\n      dup3\n        /* \"#utility.yul\":2287:2301   */\n      add\n        /* \"#utility.yul\":2280:2338   */\n      mstore\n        /* \"#utility.yul\":2372:2380   */\n      0x62757965722e0000000000000000000000000000000000000000000000000000\n        /* \"#utility.yul\":2367:2369   */\n      0x20\n        /* \"#utility.yul\":2359:2365   */\n      dup3\n        /* \"#utility.yul\":2355:2370   */\n      add\n        /* \"#utility.yul\":2348:2381   */\n      mstore\n        /* \"#utility.yul\":2163:2388   */\n      pop\n      jump\t// out\n        /* \"#utility.yul\":2394:2760   */\n    tag_106:\n        /* \"#utility.yul\":2536:2539   */\n      0x00\n        /* \"#utility.yul\":2557:2624   */\n      tag_145\n        /* \"#utility.yul\":2621:2623   */\n      0x26\n        /* \"#utility.yul\":2616:2619   */\n      dup4\n        /* \"#utility.yul\":2557:2624   */\n      tag_104\n      jump\t// in\n    tag_145:\n        /* \"#utility.yul\":2550:2624   */\n      swap2\n      pop\n        /* \"#utility.yul\":2633:2726   */\n      tag_146\n        /* \"#utility.yul\":2722:2725   */\n      dup3\n        /* \"#utility.yul\":2633:2726   */\n      tag_105\n      jump\t// in\n    tag_146:\n        /* \"#utility.yul\":2751:2753   */\n      0x40\n        /* \"#utility.yul\":2746:2749   */\n      dup3\n        /* \"#utility.yul\":2742:2754   */\n      add\n        /* \"#utility.yul\":2735:2754   */\n      swap1\n      pop\n        /* \"#utility.yul\":2394:2760   */\n      swap2\n      swap1\n      pop\n      jump\t// out\n        /* \"#utility.yul\":2766:3185   */\n    tag_45:\n        /* \"#utility.yul\":2932:2936   */\n      0x00\n        /* \"#utility.yul\":2970:2972   */\n      0x20\n        /* \"#utility.yul\":2959:2968   */\n      dup3\n        /* \"#utility.yul\":2955:2973   */\n      add\n        /* \"#utility.yul\":2947:2973   */\n      swap1\n      pop\n        /* \"#utility.yul\":3019:3028   */\n      dup2\n        /* \"#utility.yul\":3013:3017   */\n      dup2\n        /* \"#utility.yul\":3009:3029   */\n      sub\n        /* \"#utility.yul\":3005:3006   */\n      0x00\n        /* \"#utility.yul\":2994:3003   */\n      dup4\n        /* \"#utility.yul\":2990:3007   */\n      add\n        /* \"#utility.yul\":2983:3030   */\n      mstore\n        /* \"#utility.yul\":3047:3178   */\n      tag_148\n        /* \"#utility.yul\":3173:3177   */\n      dup2\n        /* \"#utility.yul\":3047:3178   */\n      tag_106\n      jump\t// in\n    tag_148:\n        /* \"#utility.yul\":3039:3178   */\n      swap1\n      pop\n        /* \"#utility.yul\":2766:3185   */\n      swap2\n      swap1\n      pop\n      jump\t// out\n        /* \"#utility.yul\":3191:3370   */\n    tag_107:\n        /* \"#utility.yul\":3331:3362   */\n      0x4f72646572206d75737420756e7061696420746f20626520706169642e000000\n        /* \"#utility.yul\":3327:3328   */\n      0x00\n        /* \"#utility.yul\":3319:3325   */\n      dup3\n        /* \"#utility.yul\":3315:3329   */\n      add\n        /* \"#utility.yul\":3308:3363   */\n      mstore\n        /* \"#utility.yul\":3191:3370   */\n      pop\n      jump\t// out\n        /* \"#utility.yul\":3376:3742   */\n    tag_108:\n        /* \"#utility.yul\":3518:3521   */\n      0x00\n        /* \"#utility.yul\":3539:3606   */\n      tag_151\n        /* \"#utility.yul\":3603:3605   */\n      0x1d\n        /* \"#utility.yul\":3598:3601   */\n      dup4\n        /* \"#utility.yul\":3539:3606   */\n      tag_104\n      jump\t// in\n    tag_151:\n        /* \"#utility.yul\":3532:3606   */\n      swap2\n      pop\n        /* \"#utility.yul\":3615:3708   */\n      tag_152\n        /* \"#utility.yul\":3704:3707   */\n      dup3\n        /* \"#utility.yul\":3615:3708   */\n      tag_107\n      jump\t// in\n    tag_152:\n        /* \"#utility.yul\":3733:3735   */\n      0x20\n        /* \"#utility.yul\":3728:3731   */\n      dup3\n        /* \"#utility.yul\":3724:3736   */\n      add\n        /* \"#utility.yul\":3717:3736   */\n      swap1\n      pop\n        /* \"#utility.yul\":3376:3742   */\n      swap2\n      swap1\n      pop\n      jump\t// out\n        /* \"#utility.yul\":3748:4167   */\n    tag_54:\n        /* \"#utility.yul\":3914:3918   */\n      0x00\n        /* \"#utility.yul\":3952:3954   */\n      0x20\n        /* \"#utility.yul\":3941:3950   */\n      dup3\n        /* \"#utility.yul\":3937:3955   */\n      add\n        /* \"#utility.yul\":3929:3955   */\n      swap1\n      pop\n        /* \"#utility.yul\":4001:4010   */\n      dup2\n        /* \"#utility.yul\":3995:3999   */\n      dup2\n        /* \"#utility.yul\":3991:4011   */\n      sub\n        /* \"#utility.yul\":3987:3988   */\n      0x00\n        /* \"#utility.yul\":3976:3985   */\n      dup4\n        /* \"#utility.yul\":3972:3989   */\n      add\n        /* \"#utility.yul\":3965:4012   */\n      mstore\n        /* \"#utility.yul\":4029:4160   */\n      tag_154\n        /* \"#utility.yul\":4155:4159   */\n      dup2\n        /* \"#utility.yul\":4029:4160   */\n      tag_108\n      jump\t// in\n    tag_154:\n        /* \"#utility.yul\":4021:4160   */\n      swap1\n      pop\n        /* \"#utility.yul\":3748:4167   */\n      swap2\n      swap1\n      pop\n      jump\t// out\n        /* \"#utility.yul\":4173:4398   */\n    tag_109:\n        /* \"#utility.yul\":4313:4347   */\n      0x506179656d656e742076616c7565206d61737420657175616c20746f20746865\n        /* \"#utility.yul\":4309:4310   */\n      0x00\n        /* \"#utility.yul\":4301:4307   */\n      dup3\n        /* \"#utility.yul\":4297:4311   */\n      add\n        /* \"#utility.yul\":4290:4348   */\n      mstore\n        /* \"#utility.yul\":4382:4390   */\n      0x20636f73742e0000000000000000000000000000000000000000000000000000\n        /* \"#utility.yul\":4377:4379   */\n      0x20\n        /* \"#utility.yul\":4369:4375   */\n      dup3\n        /* \"#utility.yul\":4365:4380   */\n      add\n        /* \"#utility.yul\":4358:4391   */\n      mstore\n        /* \"#utility.yul\":4173:4398   */\n      pop\n      jump\t// out\n        /* \"#utility.yul\":4404:4770   */\n    tag_110:\n        /* \"#utility.yul\":4546:4549   */\n      0x00\n        /* \"#utility.yul\":4567:4634   */\n      tag_157\n        /* \"#utility.yul\":4631:4633   */\n      0x26\n        /* \"#utility.yul\":4626:4629   */\n      dup4\n        /* \"#utility.yul\":4567:4634   */\n      tag_104\n      jump\t// in\n    tag_157:\n        /* \"#utility.yul\":4560:4634   */\n      swap2\n      pop\n        /* \"#utility.yul\":4643:4736   */\n      tag_158\n        /* \"#utility.yul\":4732:4735   */\n      dup3\n        /* \"#utility.yul\":4643:4736   */\n      tag_109\n      jump\t// in\n    tag_158:\n        /* \"#utility.yul\":4761:4763   */\n      0x40\n        /* \"#utility.yul\":4756:4759   */\n      dup3\n        /* \"#utility.yul\":4752:4764   */\n      add\n        /* \"#utility.yul\":4745:4764   */\n      swap1\n      pop\n        /* \"#utility.yul\":4404:4770   */\n      swap2\n      swap1\n      pop\n      jump\t// out\n        /* \"#utility.yul\":4776:5195   */\n    tag_57:\n        /* \"#utility.yul\":4942:4946   */\n      0x00\n        /* \"#utility.yul\":4980:4982   */\n      0x20\n        /* \"#utility.yul\":4969:4978   */\n      dup3\n        /* \"#utility.yul\":4965:4983   */\n      add\n        /* \"#utility.yul\":4957:4983   */\n      swap1\n      pop\n        /* \"#utility.yul\":5029:5038   */\n      dup2\n        /* \"#utility.yul\":5023:5027   */\n      dup2\n        /* \"#utility.yul\":5019:5039   */\n      sub\n        /* \"#utility.yul\":5015:5016   */\n      0x00\n        /* \"#utility.yul\":5004:5013   */\n      dup4\n        /* \"#utility.yul\":5000:5017   */\n      add\n        /* \"#utility.yul\":4993:5040   */\n      mstore\n        /* \"#utility.yul\":5057:5188   */\n      tag_160\n        /* \"#utility.yul\":5183:5187   */\n      dup2\n        /* \"#utility.yul\":5057:5188   */\n      tag_110\n      jump\t// in\n    tag_160:\n        /* \"#utility.yul\":5049:5188   */\n      swap1\n      pop\n        /* \"#utility.yul\":4776:5195   */\n      swap2\n      swap1\n      pop\n      jump\t// out\n        /* \"#utility.yul\":5201:5430   */\n    tag_111:\n        /* \"#utility.yul\":5341:5375   */\n      0x4f72646572206d7573742062652070616964206265666f7265206265696e6720\n        /* \"#utility.yul\":5337:5338   */\n      0x00\n        /* \"#utility.yul\":5329:5335   */\n      dup3\n        /* \"#utility.yul\":5325:5339   */\n      add\n        /* \"#utility.yul\":5318:5376   */\n      mstore\n        /* \"#utility.yul\":5410:5422   */\n      0x7069636b65642075702e00000000000000000000000000000000000000000000\n        /* \"#utility.yul\":5405:5407   */\n      0x20\n        /* \"#utility.yul\":5397:5403   */\n      dup3\n        /* \"#utility.yul\":5393:5408   */\n      add\n        /* \"#utility.yul\":5386:5423   */\n      mstore\n        /* \"#utility.yul\":5201:5430   */\n      pop\n      jump\t// out\n        /* \"#utility.yul\":5436:5802   */\n    tag_112:\n        /* \"#utility.yul\":5578:5581   */\n      0x00\n        /* \"#utility.yul\":5599:5666   */\n      tag_163\n        /* \"#utility.yul\":5663:5665   */\n      0x2a\n        /* \"#utility.yul\":5658:5661   */\n      dup4\n        /* \"#utility.yul\":5599:5666   */\n      tag_104\n      jump\t// in\n    tag_163:\n        /* \"#utility.yul\":5592:5666   */\n      swap2\n      pop\n        /* \"#utility.yul\":5675:5768   */\n      tag_164\n        /* \"#utility.yul\":5764:5767   */\n      dup3\n        /* \"#utility.yul\":5675:5768   */\n      tag_111\n      jump\t// in\n    tag_164:\n        /* \"#utility.yul\":5793:5795   */\n      0x40\n        /* \"#utility.yul\":5788:5791   */\n      dup3\n        /* \"#utility.yul\":5784:5796   */\n      add\n        /* \"#utility.yul\":5777:5796   */\n      swap1\n      pop\n        /* \"#utility.yul\":5436:5802   */\n      swap2\n      swap1\n      pop\n      jump\t// out\n        /* \"#utility.yul\":5808:6227   */\n    tag_67:\n        /* \"#utility.yul\":5974:5978   */\n      0x00\n        /* \"#utility.yul\":6012:6014   */\n      0x20\n        /* \"#utility.yul\":6001:6010   */\n      dup3\n        /* \"#utility.yul\":5997:6015   */\n      add\n        /* \"#utility.yul\":5989:6015   */\n      swap1\n      pop\n        /* \"#utility.yul\":6061:6070   */\n      dup2\n        /* \"#utility.yul\":6055:6059   */\n      dup2\n        /* \"#utility.yul\":6051:6071   */\n      sub\n        /* \"#utility.yul\":6047:6048   */\n      0x00\n        /* \"#utility.yul\":6036:6045   */\n      dup4\n        /* \"#utility.yul\":6032:6049   */\n      add\n        /* \"#utility.yul\":6025:6072   */\n      mstore\n        /* \"#utility.yul\":6089:6220   */\n      tag_166\n        /* \"#utility.yul\":6215:6219   */\n      dup2\n        /* \"#utility.yul\":6089:6220   */\n      tag_112\n      jump\t// in\n    tag_166:\n        /* \"#utility.yul\":6081:6220   */\n      swap1\n      pop\n        /* \"#utility.yul\":5808:6227   */\n      swap2\n      swap1\n      pop\n      jump\t// out\n        /* \"#utility.yul\":6233:6460   */\n    tag_113:\n        /* \"#utility.yul\":6373:6407   */\n      0x4f72646572206d757374206265207069636b656420757020746f206265206465\n        /* \"#utility.yul\":6369:6370   */\n      0x00\n        /* \"#utility.yul\":6361:6367   */\n      dup3\n        /* \"#utility.yul\":6357:6371   */\n      add\n        /* \"#utility.yul\":6350:6408   */\n      mstore\n        /* \"#utility.yul\":6442:6452   */\n      0x6c6976657265642e000000000000000000000000000000000000000000000000\n        /* \"#utility.yul\":6437:6439   */\n      0x20\n        /* \"#utility.yul\":6429:6435   */\n      dup3\n        /* \"#utility.yul\":6425:6440   */\n      add\n        /* \"#utility.yul\":6418:6453   */\n      mstore\n        /* \"#utility.yul\":6233:6460   */\n      pop\n      jump\t// out\n        /* \"#utility.yul\":6466:6832   */\n    tag_114:\n        /* \"#utility.yul\":6608:6611   */\n      0x00\n        /* \"#utility.yul\":6629:6696   */\n      tag_169\n        /* \"#utility.yul\":6693:6695   */\n      0x28\n        /* \"#utility.yul\":6688:6691   */\n      dup4\n        /* \"#utility.yul\":6629:6696   */\n      tag_104\n      jump\t// in\n    tag_169:\n        /* \"#utility.yul\":6622:6696   */\n      swap2\n      pop\n        /* \"#utility.yul\":6705:6798   */\n      tag_170\n        /* \"#utility.yul\":6794:6797   */\n      dup3\n        /* \"#utility.yul\":6705:6798   */\n      tag_113\n      jump\t// in\n    tag_170:\n        /* \"#utility.yul\":6823:6825   */\n      0x40\n        /* \"#utility.yul\":6818:6821   */\n      dup3\n        /* \"#utility.yul\":6814:6826   */\n      add\n        /* \"#utility.yul\":6807:6826   */\n      swap1\n      pop\n        /* \"#utility.yul\":6466:6832   */\n      swap2\n      swap1\n      pop\n      jump\t// out\n        /* \"#utility.yul\":6838:7257   */\n    tag_80:\n        /* \"#utility.yul\":7004:7008   */\n      0x00\n        /* \"#utility.yul\":7042:7044   */\n      0x20\n        /* \"#utility.yul\":7031:7040   */\n      dup3\n        /* \"#utility.yul\":7027:7045   */\n      add\n        /* \"#utility.yul\":7019:7045   */\n      swap1\n      pop\n        /* \"#utility.yul\":7091:7100   */\n      dup2\n        /* \"#utility.yul\":7085:7089   */\n      dup2\n        /* \"#utility.yul\":7081:7101   */\n      sub\n        /* \"#utility.yul\":7077:7078   */\n      0x00\n        /* \"#utility.yul\":7066:7075   */\n      dup4\n        /* \"#utility.yul\":7062:7079   */\n      add\n        /* \"#utility.yul\":7055:7102   */\n      mstore\n        /* \"#utility.yul\":7119:7250   */\n      tag_172\n        /* \"#utility.yul\":7245:7249   */\n      dup2\n        /* \"#utility.yul\":7119:7250   */\n      tag_114\n      jump\t// in\n    tag_172:\n        /* \"#utility.yul\":7111:7250   */\n      swap1\n      pop\n        /* \"#utility.yul\":6838:7257   */\n      swap2\n      swap1\n      pop\n      jump\t// out\n        /* \"#utility.yul\":7263:7443   */\n    tag_115:\n        /* \"#utility.yul\":7311:7388   */\n      0x4e487b7100000000000000000000000000000000000000000000000000000000\n        /* \"#utility.yul\":7308:7309   */\n      0x00\n        /* \"#utility.yul\":7301:7389   */\n      mstore\n        /* \"#utility.yul\":7408:7412   */\n      0x11\n        /* \"#utility.yul\":7405:7406   */\n      0x04\n        /* \"#utility.yul\":7398:7413   */\n      mstore\n        /* \"#utility.yul\":7432:7436   */\n      0x24\n        /* \"#utility.yul\":7429:7430   */\n      0x00\n        /* \"#utility.yul\":7422:7437   */\n      revert\n        /* \"#utility.yul\":7449:7859   */\n    tag_86:\n        /* \"#utility.yul\":7489:7496   */\n      0x00\n        /* \"#utility.yul\":7512:7532   */\n      tag_175\n        /* \"#utility.yul\":7530:7531   */\n      dup3\n        /* \"#utility.yul\":7512:7532   */\n      tag_95\n      jump\t// in\n    tag_175:\n        /* \"#utility.yul\":7507:7532   */\n      swap2\n      pop\n        /* \"#utility.yul\":7546:7566   */\n      tag_176\n        /* \"#utility.yul\":7564:7565   */\n      dup4\n        /* \"#utility.yul\":7546:7566   */\n      tag_95\n      jump\t// in\n    tag_176:\n        /* \"#utility.yul\":7541:7566   */\n      swap3\n      pop\n        /* \"#utility.yul\":7601:7602   */\n      dup3\n        /* \"#utility.yul\":7598:7599   */\n      dup3\n        /* \"#utility.yul\":7594:7603   */\n      mul\n        /* \"#utility.yul\":7623:7653   */\n      tag_177\n        /* \"#utility.yul\":7641:7652   */\n      dup2\n        /* \"#utility.yul\":7623:7653   */\n      tag_95\n      jump\t// in\n    tag_177:\n        /* \"#utility.yul\":7612:7653   */\n      swap2\n      pop\n        /* \"#utility.yul\":7802:7803   */\n      dup3\n        /* \"#utility.yul\":7793:7800   */\n      dup3\n        /* \"#utility.yul\":7789:7804   */\n      div\n        /* \"#utility.yul\":7786:7787   */\n      dup5\n        /* \"#utility.yul\":7783:7805   */\n      eq\n        /* \"#utility.yul\":7763:7764   */\n      dup4\n        /* \"#utility.yul\":7756:7765   */\n      iszero\n        /* \"#utility.yul\":7736:7819   */\n      or\n        /* \"#utility.yul\":7713:7852   */\n      tag_178\n      jumpi\n        /* \"#utility.yul\":7832:7850   */\n      tag_179\n      tag_115\n      jump\t// in\n    tag_179:\n        /* \"#utility.yul\":7713:7852   */\n    tag_178:\n        /* \"#utility.yul\":7497:7859   */\n      pop\n        /* \"#utility.yul\":7449:7859   */\n      swap3\n      swap2\n      pop\n      pop\n      jump\t// out\n        /* \"#utility.yul\":7865:8045   */\n    tag_116:\n        /* \"#utility.yul\":7913:7990   */\n      0x4e487b7100000000000000000000000000000000000000000000000000000000\n        /* \"#utility.yul\":7910:7911   */\n      0x00\n        /* \"#utility.yul\":7903:7991   */\n      mstore\n        /* \"#utility.yul\":8010:8014   */\n      0x12\n        /* \"#utility.yul\":8007:8008   */\n      0x04\n        /* \"#utility.yul\":8000:8015   */\n      mstore\n        /* \"#utility.yul\":8034:8038   */\n      0x24\n        /* \"#utility.yul\":8031:8032   */\n      0x00\n        /* \"#utility.yul\":8024:8039   */\n      revert\n        /* \"#utility.yul\":8051:8236   */\n    tag_88:\n        /* \"#utility.yul\":8091:8092   */\n      0x00\n        /* \"#utility.yul\":8108:8128   */\n      tag_182\n        /* \"#utility.yul\":8126:8127   */\n      dup3\n        /* \"#utility.yul\":8108:8128   */\n      tag_95\n      jump\t// in\n    tag_182:\n        /* \"#utility.yul\":8103:8128   */\n      swap2\n      pop\n        /* \"#utility.yul\":8142:8162   */\n      tag_183\n        /* \"#utility.yul\":8160:8161   */\n      dup4\n        /* \"#utility.yul\":8142:8162   */\n      tag_95\n      jump\t// in\n    tag_183:\n        /* \"#utility.yul\":8137:8162   */\n      swap3\n      pop\n        /* \"#utility.yul\":8181:8182   */\n      dup3\n        /* \"#utility.yul\":8171:8206   */\n      tag_184\n      jumpi\n        /* \"#utility.yul\":8186:8204   */\n      tag_185\n      tag_116\n      jump\t// in\n    tag_185:\n        /* \"#utility.yul\":8171:8206   */\n    tag_184:\n        /* \"#utility.yul\":8228:8229   */\n      dup3\n        /* \"#utility.yul\":8225:8226   */\n      dup3\n        /* \"#utility.yul\":8221:8230   */\n      div\n        /* \"#utility.yul\":8216:8230   */\n      swap1\n      pop\n        /* \"#utility.yul\":8051:8236   */\n      swap3\n      swap2\n      pop\n      pop\n      jump\t// out\n        /* \"#utility.yul\":8242:8436   */\n    tag_90:\n        /* \"#utility.yul\":8282:8286   */\n      0x00\n        /* \"#utility.yul\":8302:8322   */\n      tag_187\n        /* \"#utility.yul\":8320:8321   */\n      dup3\n        /* \"#utility.yul\":8302:8322   */\n      tag_95\n      jump\t// in\n    tag_187:\n        /* \"#utility.yul\":8297:8322   */\n      swap2\n      pop\n        /* \"#utility.yul\":8336:8356   */\n      tag_188\n        /* \"#utility.yul\":8354:8355   */\n      dup4\n        /* \"#utility.yul\":8336:8356   */\n      tag_95\n      jump\t// in\n    tag_188:\n        /* \"#utility.yul\":8331:8356   */\n      swap3\n      pop\n        /* \"#utility.yul\":8380:8381   */\n      dup3\n        /* \"#utility.yul\":8377:8378   */\n      dup3\n        /* \"#utility.yul\":8373:8382   */\n      sub\n        /* \"#utility.yul\":8365:8382   */\n      swap1\n      pop\n        /* \"#utility.yul\":8404:8405   */\n      dup2\n        /* \"#utility.yul\":8398:8402   */\n      dup2\n        /* \"#utility.yul\":8395:8406   */\n      gt\n        /* \"#utility.yul\":8392:8429   */\n      iszero\n      tag_189\n      jumpi\n        /* \"#utility.yul\":8409:8427   */\n      tag_190\n      tag_115\n      jump\t// in\n    tag_190:\n        /* \"#utility.yul\":8392:8429   */\n    tag_189:\n        /* \"#utility.yul\":8242:8436   */\n      swap3\n      swap2\n      pop\n      pop\n      jump\t// out\n\n    auxdata: 0xa2646970667358221220ae3c4c27173af5583d5ade9d54dc28ed4d9fe1571306373c2f08b62ad224083a64736f6c63430008120033\n}\n",
				"bytecode": {
					"linkReferences": {},
					"object": "60806040523480156200001157600080fd5b5060405162000df738038062000df783398181016040528101906200003791906200019a565b336000806101000a81548173ffffffffffffffffffffffffffffffffffffffff021916908373ffffffffffffffffffffffffffffffffffffffff16021790555081600160006101000a81548173ffffffffffffffffffffffffffffffffffffffff021916908373ffffffffffffffffffffffffffffffffffffffff160217905550806003819055506000600460006101000a81548160ff02191690836003811115620000e857620000e7620001e1565b5b0217905550505062000210565b600080fd5b600073ffffffffffffffffffffffffffffffffffffffff82169050919050565b60006200012782620000fa565b9050919050565b62000139816200011a565b81146200014557600080fd5b50565b60008151905062000159816200012e565b92915050565b6000819050919050565b62000174816200015f565b81146200018057600080fd5b50565b600081519050620001948162000169565b92915050565b60008060408385031215620001b457620001b3620000f5565b5b6000620001c48582860162000148565b9250506020620001d78582860162000183565b9150509250929050565b7f4e487b7100000000000000000000000000000000000000000000000000000000600052602160045260246000fd5b610bd780620002206000396000f3fe60806040526004361061007b5760003560e01c80637150d8ae1161004e5780637150d8ae146100f75780638da5cb5b14610122578063bbdfbfba1461014d578063c19d93fb146101645761007b565b806313faede6146100805780631b9265b8146100ab57806334791416146100b557806350a7f7d3146100cc575b600080fd5b34801561008c57600080fd5b5061009561018f565b6040516100a291906106ce565b60405180910390f35b6100b3610195565b005b3480156100c157600080fd5b506100ca61030c565b005b3480156100d857600080fd5b506100e16103f0565b6040516100ee919061072a565b60405180910390f35b34801561010357600080fd5b5061010c610416565b604051610119919061072a565b60405180910390f35b34801561012e57600080fd5b5061013761043c565b604051610144919061072a565b60405180910390f35b34801561015957600080fd5b50610162610460565b005b34801561017057600080fd5b506101796106a2565b60405161018691906107bc565b60405180910390f35b60035481565b600160009054906101000a900473ffffffffffffffffffffffffffffffffffffffff1673ffffffffffffffffffffffffffffffffffffffff163373ffffffffffffffffffffffffffffffffffffffff1614610225576040517f08c379a000000000000000000000000000000000000000000000000000000000815260040161021c9061085a565b60405180910390fd5b6000600381111561023957610238610745565b5b600460009054906101000a900460ff16600381111561025b5761025a610745565b5b1461029b576040517f08c379a0000000000000000000000000000000000000000000000000000000008152600401610292906108c6565b60405180910390fd5b60035434146102df576040517f08c379a00000000000000000000000000000000000000000000000000000000081526004016102d690610958565b60405180910390fd5b6001600460006101000a81548160ff0219169083600381111561030557610304610745565b5b0217905550565b600160038111156103205761031f610745565b5b600460009054906101000a900460ff16600381111561034257610341610745565b5b14610382576040517f08c379a0000000000000000000000000000000000000000000000000000000008152600401610379906109ea565b60405180910390fd5b33600260006101000a81548173ffffffffffffffffffffffffffffffffffffffff021916908373ffffffffffffffffffffffffffffffffffffffff1602179055506002600460006101000a81548160ff021916908360038111156103e9576103e8610745565b5b0217905550565b600260009054906101000a900473ffffffffffffffffffffffffffffffffffffffff1681565b600160009054906101000a900473ffffffffffffffffffffffffffffffffffffffff1681565b60008054906101000a900473ffffffffffffffffffffffffffffffffffffffff1681565b600160009054906101000a900473ffffffffffffffffffffffffffffffffffffffff1673ffffffffffffffffffffffffffffffffffffffff163373ffffffffffffffffffffffffffffffffffffffff16146104f0576040517f08c379a00000000000000000000000000000000000000000000000000000000081526004016104e79061085a565b60405180910390fd5b6002600381111561050457610503610745565b5b600460009054906101000a900460ff16600381111561052657610525610745565b5b14610566576040517f08c379a000000000000000000000000000000000000000000000000000000000815260040161055d90610a7c565b60405180910390fd5b60038081111561057957610578610745565b5b600460009054906101000a900460ff16600381111561059b5761059a610745565b5b50506000600560016003546105b09190610acb565b6105ba9190610b3c565b90506000816003546105cc9190610b6d565b9050600260009054906101000a900473ffffffffffffffffffffffffffffffffffffffff1673ffffffffffffffffffffffffffffffffffffffff166108fc839081150290604051600060405180830381858888f19350505050158015610636573d6000803e3d6000fd5b5060008054906101000a900473ffffffffffffffffffffffffffffffffffffffff1673ffffffffffffffffffffffffffffffffffffffff166108fc829081150290604051600060405180830381858888f1935050505015801561069d573d6000803e3d6000fd5b505050565b600460009054906101000a900460ff1681565b6000819050919050565b6106c8816106b5565b82525050565b60006020820190506106e360008301846106bf565b92915050565b600073ffffffffffffffffffffffffffffffffffffffff82169050919050565b6000610714826106e9565b9050919050565b61072481610709565b82525050565b600060208201905061073f600083018461071b565b92915050565b7f4e487b7100000000000000000000000000000000000000000000000000000000600052602160045260246000fd5b6004811061078557610784610745565b5b50565b600081905061079682610774565b919050565b60006107a682610788565b9050919050565b6107b68161079b565b82525050565b60006020820190506107d160008301846107ad565b92915050565b600082825260208201905092915050565b7f43616c6c6572206f6620746869732066756e6374696f6e206d7573742062652060008201527f62757965722e0000000000000000000000000000000000000000000000000000602082015250565b60006108446026836107d7565b915061084f826107e8565b604082019050919050565b6000602082019050818103600083015261087381610837565b9050919050565b7f4f72646572206d75737420756e7061696420746f20626520706169642e000000600082015250565b60006108b0601d836107d7565b91506108bb8261087a565b602082019050919050565b600060208201905081810360008301526108df816108a3565b9050919050565b7f506179656d656e742076616c7565206d61737420657175616c20746f2074686560008201527f20636f73742e0000000000000000000000000000000000000000000000000000602082015250565b60006109426026836107d7565b915061094d826108e6565b604082019050919050565b6000602082019050818103600083015261097181610935565b9050919050565b7f4f72646572206d7573742062652070616964206265666f7265206265696e672060008201527f7069636b65642075702e00000000000000000000000000000000000000000000602082015250565b60006109d4602a836107d7565b91506109df82610978565b604082019050919050565b60006020820190508181036000830152610a03816109c7565b9050919050565b7f4f72646572206d757374206265207069636b656420757020746f20626520646560008201527f6c6976657265642e000000000000000000000000000000000000000000000000602082015250565b6000610a666028836107d7565b9150610a7182610a0a565b604082019050919050565b60006020820190508181036000830152610a9581610a59565b9050919050565b7f4e487b7100000000000000000000000000000000000000000000000000000000600052601160045260246000fd5b6000610ad6826106b5565b9150610ae1836106b5565b9250828202610aef816106b5565b91508282048414831517610b0657610b05610a9c565b5b5092915050565b7f4e487b7100000000000000000000000000000000000000000000000000000000600052601260045260246000fd5b6000610b47826106b5565b9150610b52836106b5565b925082610b6257610b61610b0d565b5b828204905092915050565b6000610b78826106b5565b9150610b83836106b5565b9250828203905081811115610b9b57610b9a610a9c565b5b9291505056fea2646970667358221220ae3c4c27173af5583d5ade9d54dc28ed4d9fe1571306373c2f08b62ad224083a64736f6c63430008120033",
					"opcodes": "PUSH1 0x80 PUSH1 0x40 MSTORE CALLVALUE DUP1 ISZERO PUSH3 0x11 JUMPI PUSH1 0x0 DUP1 REVERT JUMPDEST POP PUSH1 0x40 MLOAD PUSH3 0xDF7 CODESIZE SUB DUP1 PUSH3 0xDF7 DUP4 CODECOPY DUP2 DUP2 ADD PUSH1 0x40 MSTORE DUP2 ADD SWAP1 PUSH3 0x37 SWAP2 SWAP1 PUSH3 0x19A JUMP JUMPDEST CALLER PUSH1 0x0 DUP1 PUSH2 0x100 EXP DUP2 SLOAD DUP2 PUSH20 0xFFFFFFFFFFFFFFFFFFFFFFFFFFFFFFFFFFFFFFFF MUL NOT AND SWAP1 DUP4 PUSH20 0xFFFFFFFFFFFFFFFFFFFFFFFFFFFFFFFFFFFFFFFF AND MUL OR SWAP1 SSTORE POP DUP2 PUSH1 0x1 PUSH1 0x0 PUSH2 0x100 EXP DUP2 SLOAD DUP2 PUSH20 0xFFFFFFFFFFFFFFFFFFFFFFFFFFFFFFFFFFFFFFFF MUL NOT AND SWAP1 DUP4 PUSH20 0xFFFFFFFFFFFFFFFFFFFFFFFFFFFFFFFFFFFFFFFF AND MUL OR SWAP1 SSTORE POP DUP1 PUSH1 0x3 DUP2 SWAP1 SSTORE POP PUSH1 0x0 PUSH1 0x4 PUSH1 0x0 PUSH2 0x100 EXP DUP2 SLOAD DUP2 PUSH1 0xFF MUL NOT AND SWAP1 DUP4 PUSH1 0x3 DUP2 GT ISZERO PUSH3 0xE8 JUMPI PUSH3 0xE7 PUSH3 0x1E1 JUMP JUMPDEST JUMPDEST MUL OR SWAP1 SSTORE POP POP POP PUSH3 0x210 JUMP JUMPDEST PUSH1 0x0 DUP1 REVERT JUMPDEST PUSH1 0x0 PUSH20 0xFFFFFFFFFFFFFFFFFFFFFFFFFFFFFFFFFFFFFFFF DUP3 AND SWAP1 POP SWAP2 SWAP1 POP JUMP JUMPDEST PUSH1 0x0 PUSH3 0x127 DUP3 PUSH3 0xFA JUMP JUMPDEST SWAP1 POP SWAP2 SWAP1 POP JUMP JUMPDEST PUSH3 0x139 DUP2 PUSH3 0x11A JUMP JUMPDEST DUP2 EQ PUSH3 0x145 JUMPI PUSH1 0x0 DUP1 REVERT JUMPDEST POP JUMP JUMPDEST PUSH1 0x0 DUP2 MLOAD SWAP1 POP PUSH3 0x159 DUP2 PUSH3 0x12E JUMP JUMPDEST SWAP3 SWAP2 POP POP JUMP JUMPDEST PUSH1 0x0 DUP2 SWAP1 POP SWAP2 SWAP1 POP JUMP JUMPDEST PUSH3 0x174 DUP2 PUSH3 0x15F JUMP JUMPDEST DUP2 EQ PUSH3 0x180 JUMPI PUSH1 0x0 DUP1 REVERT JUMPDEST POP JUMP JUMPDEST PUSH1 0x0 DUP2 MLOAD SWAP1 POP PUSH3 0x194 DUP2 PUSH3 0x169 JUMP JUMPDEST SWAP3 SWAP2 POP POP JUMP JUMPDEST PUSH1 0x0 DUP1 PUSH1 0x40 DUP4 DUP6 SUB SLT ISZERO PUSH3 0x1B4 JUMPI PUSH3 0x1B3 PUSH3 0xF5 JUMP JUMPDEST JUMPDEST PUSH1 0x0 PUSH3 0x1C4 DUP6 DUP3 DUP7 ADD PUSH3 0x148 JUMP JUMPDEST SWAP3 POP POP PUSH1 0x20 PUSH3 0x1D7 DUP6 DUP3 DUP7 ADD PUSH3 0x183 JUMP JUMPDEST SWAP2 POP POP SWAP3 POP SWAP3 SWAP1 POP JUMP JUMPDEST PUSH32 0x4E487B7100000000000000000000000000000000000000000000000000000000 PUSH1 0x0 MSTORE PUSH1 0x21 PUSH1 0x4 MSTORE PUSH1 0x24 PUSH1 0x0 REVERT JUMPDEST PUSH2 0xBD7 DUP1 PUSH3 0x220 PUSH1 0x0 CODECOPY PUSH1 0x0 RETURN INVALID PUSH1 0x80 PUSH1 0x40 MSTORE PUSH1 0x4 CALLDATASIZE LT PUSH2 0x7B JUMPI PUSH1 0x0 CALLDATALOAD PUSH1 0xE0 SHR DUP1 PUSH4 0x7150D8AE GT PUSH2 0x4E JUMPI DUP1 PUSH4 0x7150D8AE EQ PUSH2 0xF7 JUMPI DUP1 PUSH4 0x8DA5CB5B EQ PUSH2 0x122 JUMPI DUP1 PUSH4 0xBBDFBFBA EQ PUSH2 0x14D JUMPI DUP1 PUSH4 0xC19D93FB EQ PUSH2 0x164 JUMPI PUSH2 0x7B JUMP JUMPDEST DUP1 PUSH4 0x13FAEDE6 EQ PUSH2 0x80 JUMPI DUP1 PUSH4 0x1B9265B8 EQ PUSH2 0xAB JUMPI DUP1 PUSH4 0x34791416 EQ PUSH2 0xB5 JUMPI DUP1 PUSH4 0x50A7F7D3 EQ PUSH2 0xCC JUMPI JUMPDEST PUSH1 0x0 DUP1 REVERT JUMPDEST CALLVALUE DUP1 ISZERO PUSH2 0x8C JUMPI PUSH1 0x0 DUP1 REVERT JUMPDEST POP PUSH2 0x95 PUSH2 0x18F JUMP JUMPDEST PUSH1 0x40 MLOAD PUSH2 0xA2 SWAP2 SWAP1 PUSH2 0x6CE JUMP JUMPDEST PUSH1 0x40 MLOAD DUP1 SWAP2 SUB SWAP1 RETURN JUMPDEST PUSH2 0xB3 PUSH2 0x195 JUMP JUMPDEST STOP JUMPDEST CALLVALUE DUP1 ISZERO PUSH2 0xC1 JUMPI PUSH1 0x0 DUP1 REVERT JUMPDEST POP PUSH2 0xCA PUSH2 0x30C JUMP JUMPDEST STOP JUMPDEST CALLVALUE DUP1 ISZERO PUSH2 0xD8 JUMPI PUSH1 0x0 DUP1 REVERT JUMPDEST POP PUSH2 0xE1 PUSH2 0x3F0 JUMP JUMPDEST PUSH1 0x40 MLOAD PUSH2 0xEE SWAP2 SWAP1 PUSH2 0x72A JUMP JUMPDEST PUSH1 0x40 MLOAD DUP1 SWAP2 SUB SWAP1 RETURN JUMPDEST CALLVALUE DUP1 ISZERO PUSH2 0x103 JUMPI PUSH1 0x0 DUP1 REVERT JUMPDEST POP PUSH2 0x10C PUSH2 0x416 JUMP JUMPDEST PUSH1 0x40 MLOAD PUSH2 0x119 SWAP2 SWAP1 PUSH2 0x72A JUMP JUMPDEST PUSH1 0x40 MLOAD DUP1 SWAP2 SUB SWAP1 RETURN JUMPDEST CALLVALUE DUP1 ISZERO PUSH2 0x12E JUMPI PUSH1 0x0 DUP1 REVERT JUMPDEST POP PUSH2 0x137 PUSH2 0x43C JUMP JUMPDEST PUSH1 0x40 MLOAD PUSH2 0x144 SWAP2 SWAP1 PUSH2 0x72A JUMP JUMPDEST PUSH1 0x40 MLOAD DUP1 SWAP2 SUB SWAP1 RETURN JUMPDEST CALLVALUE DUP1 ISZERO PUSH2 0x159 JUMPI PUSH1 0x0 DUP1 REVERT JUMPDEST POP PUSH2 0x162 PUSH2 0x460 JUMP JUMPDEST STOP JUMPDEST CALLVALUE DUP1 ISZERO PUSH2 0x170 JUMPI PUSH1 0x0 DUP1 REVERT JUMPDEST POP PUSH2 0x179 PUSH2 0x6A2 JUMP JUMPDEST PUSH1 0x40 MLOAD PUSH2 0x186 SWAP2 SWAP1 PUSH2 0x7BC JUMP JUMPDEST PUSH1 0x40 MLOAD DUP1 SWAP2 SUB SWAP1 RETURN JUMPDEST PUSH1 0x3 SLOAD DUP2 JUMP JUMPDEST PUSH1 0x1 PUSH1 0x0 SWAP1 SLOAD SWAP1 PUSH2 0x100 EXP SWAP1 DIV PUSH20 0xFFFFFFFFFFFFFFFFFFFFFFFFFFFFFFFFFFFFFFFF AND PUSH20 0xFFFFFFFFFFFFFFFFFFFFFFFFFFFFFFFFFFFFFFFF AND CALLER PUSH20 0xFFFFFFFFFFFFFFFFFFFFFFFFFFFFFFFFFFFFFFFF AND EQ PUSH2 0x225 JUMPI PUSH1 0x40 MLOAD PUSH32 0x8C379A000000000000000000000000000000000000000000000000000000000 DUP2 MSTORE PUSH1 0x4 ADD PUSH2 0x21C SWAP1 PUSH2 0x85A JUMP JUMPDEST PUSH1 0x40 MLOAD DUP1 SWAP2 SUB SWAP1 REVERT JUMPDEST PUSH1 0x0 PUSH1 0x3 DUP2 GT ISZERO PUSH2 0x239 JUMPI PUSH2 0x238 PUSH2 0x745 JUMP JUMPDEST JUMPDEST PUSH1 0x4 PUSH1 0x0 SWAP1 SLOAD SWAP1 PUSH2 0x100 EXP SWAP1 DIV PUSH1 0xFF AND PUSH1 0x3 DUP2 GT ISZERO PUSH2 0x25B JUMPI PUSH2 0x25A PUSH2 0x745 JUMP JUMPDEST JUMPDEST EQ PUSH2 0x29B JUMPI PUSH1 0x40 MLOAD PUSH32 0x8C379A000000000000000000000000000000000000000000000000000000000 DUP2 MSTORE PUSH1 0x4 ADD PUSH2 0x292 SWAP1 PUSH2 0x8C6 JUMP JUMPDEST PUSH1 0x40 MLOAD DUP1 SWAP2 SUB SWAP1 REVERT JUMPDEST PUSH1 0x3 SLOAD CALLVALUE EQ PUSH2 0x2DF JUMPI PUSH1 0x40 MLOAD PUSH32 0x8C379A000000000000000000000000000000000000000000000000000000000 DUP2 MSTORE PUSH1 0x4 ADD PUSH2 0x2D6 SWAP1 PUSH2 0x958 JUMP JUMPDEST PUSH1 0x40 MLOAD DUP1 SWAP2 SUB SWAP1 REVERT JUMPDEST PUSH1 0x1 PUSH1 0x4 PUSH1 0x0 PUSH2 0x100 EXP DUP2 SLOAD DUP2 PUSH1 0xFF MUL NOT AND SWAP1 DUP4 PUSH1 0x3 DUP2 GT ISZERO PUSH2 0x305 JUMPI PUSH2 0x304 PUSH2 0x745 JUMP JUMPDEST JUMPDEST MUL OR SWAP1 SSTORE POP JUMP JUMPDEST PUSH1 0x1 PUSH1 0x3 DUP2 GT ISZERO PUSH2 0x320 JUMPI PUSH2 0x31F PUSH2 0x745 JUMP JUMPDEST JUMPDEST PUSH1 0x4 PUSH1 0x0 SWAP1 SLOAD SWAP1 PUSH2 0x100 EXP SWAP1 DIV PUSH1 0xFF AND PUSH1 0x3 DUP2 GT ISZERO PUSH2 0x342 JUMPI PUSH2 0x341 PUSH2 0x745 JUMP JUMPDEST JUMPDEST EQ PUSH2 0x382 JUMPI PUSH1 0x40 MLOAD PUSH32 0x8C379A000000000000000000000000000000000000000000000000000000000 DUP2 MSTORE PUSH1 0x4 ADD PUSH2 0x379 SWAP1 PUSH2 0x9EA JUMP JUMPDEST PUSH1 0x40 MLOAD DUP1 SWAP2 SUB SWAP1 REVERT JUMPDEST CALLER PUSH1 0x2 PUSH1 0x0 PUSH2 0x100 EXP DUP2 SLOAD DUP2 PUSH20 0xFFFFFFFFFFFFFFFFFFFFFFFFFFFFFFFFFFFFFFFF MUL NOT AND SWAP1 DUP4 PUSH20 0xFFFFFFFFFFFFFFFFFFFFFFFFFFFFFFFFFFFFFFFF AND MUL OR SWAP1 SSTORE POP PUSH1 0x2 PUSH1 0x4 PUSH1 0x0 PUSH2 0x100 EXP DUP2 SLOAD DUP2 PUSH1 0xFF MUL NOT AND SWAP1 DUP4 PUSH1 0x3 DUP2 GT ISZERO PUSH2 0x3E9 JUMPI PUSH2 0x3E8 PUSH2 0x745 JUMP JUMPDEST JUMPDEST MUL OR SWAP1 SSTORE POP JUMP JUMPDEST PUSH1 0x2 PUSH1 0x0 SWAP1 SLOAD SWAP1 PUSH2 0x100 EXP SWAP1 DIV PUSH20 0xFFFFFFFFFFFFFFFFFFFFFFFFFFFFFFFFFFFFFFFF AND DUP2 JUMP JUMPDEST PUSH1 0x1 PUSH1 0x0 SWAP1 SLOAD SWAP1 PUSH2 0x100 EXP SWAP1 DIV PUSH20 0xFFFFFFFFFFFFFFFFFFFFFFFFFFFFFFFFFFFFFFFF AND DUP2 JUMP JUMPDEST PUSH1 0x0 DUP1 SLOAD SWAP1 PUSH2 0x100 EXP SWAP1 DIV PUSH20 0xFFFFFFFFFFFFFFFFFFFFFFFFFFFFFFFFFFFFFFFF AND DUP2 JUMP JUMPDEST PUSH1 0x1 PUSH1 0x0 SWAP1 SLOAD SWAP1 PUSH2 0x100 EXP SWAP1 DIV PUSH20 0xFFFFFFFFFFFFFFFFFFFFFFFFFFFFFFFFFFFFFFFF AND PUSH20 0xFFFFFFFFFFFFFFFFFFFFFFFFFFFFFFFFFFFFFFFF AND CALLER PUSH20 0xFFFFFFFFFFFFFFFFFFFFFFFFFFFFFFFFFFFFFFFF AND EQ PUSH2 0x4F0 JUMPI PUSH1 0x40 MLOAD PUSH32 0x8C379A000000000000000000000000000000000000000000000000000000000 DUP2 MSTORE PUSH1 0x4 ADD PUSH2 0x4E7 SWAP1 PUSH2 0x85A JUMP JUMPDEST PUSH1 0x40 MLOAD DUP1 SWAP2 SUB SWAP1 REVERT JUMPDEST PUSH1 0x2 PUSH1 0x3 DUP2 GT ISZERO PUSH2 0x504 JUMPI PUSH2 0x503 PUSH2 0x745 JUMP JUMPDEST JUMPDEST PUSH1 0x4 PUSH1 0x0 SWAP1 SLOAD SWAP1 PUSH2 0x100 EXP SWAP1 DIV PUSH1 0xFF AND PUSH1 0x3 DUP2 GT ISZERO PUSH2 0x526 JUMPI PUSH2 0x525 PUSH2 0x745 JUMP JUMPDEST JUMPDEST EQ PUSH2 0x566 JUMPI PUSH1 0x40 MLOAD PUSH32 0x8C379A000000000000000000000000000000000000000000000000000000000 DUP2 MSTORE PUSH1 0x4 ADD PUSH2 0x55D SWAP1 PUSH2 0xA7C JUMP JUMPDEST PUSH1 0x40 MLOAD DUP1 SWAP2 SUB SWAP1 REVERT JUMPDEST PUSH1 0x3 DUP1 DUP2 GT ISZERO PUSH2 0x579 JUMPI PUSH2 0x578 PUSH2 0x745 JUMP JUMPDEST JUMPDEST PUSH1 0x4 PUSH1 0x0 SWAP1 SLOAD SWAP1 PUSH2 0x100 EXP SWAP1 DIV PUSH1 0xFF AND PUSH1 0x3 DUP2 GT ISZERO PUSH2 0x59B JUMPI PUSH2 0x59A PUSH2 0x745 JUMP JUMPDEST JUMPDEST POP POP PUSH1 0x0 PUSH1 0x5 PUSH1 0x1 PUSH1 0x3 SLOAD PUSH2 0x5B0 SWAP2 SWAP1 PUSH2 0xACB JUMP JUMPDEST PUSH2 0x5BA SWAP2 SWAP1 PUSH2 0xB3C JUMP JUMPDEST SWAP1 POP PUSH1 0x0 DUP2 PUSH1 0x3 SLOAD PUSH2 0x5CC SWAP2 SWAP1 PUSH2 0xB6D JUMP JUMPDEST SWAP1 POP PUSH1 0x2 PUSH1 0x0 SWAP1 SLOAD SWAP1 PUSH2 0x100 EXP SWAP1 DIV PUSH20 0xFFFFFFFFFFFFFFFFFFFFFFFFFFFFFFFFFFFFFFFF AND PUSH20 0xFFFFFFFFFFFFFFFFFFFFFFFFFFFFFFFFFFFFFFFF AND PUSH2 0x8FC DUP4 SWAP1 DUP2 ISZERO MUL SWAP1 PUSH1 0x40 MLOAD PUSH1 0x0 PUSH1 0x40 MLOAD DUP1 DUP4 SUB DUP2 DUP6 DUP9 DUP9 CALL SWAP4 POP POP POP POP ISZERO DUP1 ISZERO PUSH2 0x636 JUMPI RETURNDATASIZE PUSH1 0x0 DUP1 RETURNDATACOPY RETURNDATASIZE PUSH1 0x0 REVERT JUMPDEST POP PUSH1 0x0 DUP1 SLOAD SWAP1 PUSH2 0x100 EXP SWAP1 DIV PUSH20 0xFFFFFFFFFFFFFFFFFFFFFFFFFFFFFFFFFFFFFFFF AND PUSH20 0xFFFFFFFFFFFFFFFFFFFFFFFFFFFFFFFFFFFFFFFF AND PUSH2 0x8FC DUP3 SWAP1 DUP2 ISZERO MUL SWAP1 PUSH1 0x40 MLOAD PUSH1 0x0 PUSH1 0x40 MLOAD DUP1 DUP4 SUB DUP2 DUP6 DUP9 DUP9 CALL SWAP4 POP POP POP POP ISZERO DUP1 ISZERO PUSH2 0x69D JUMPI RETURNDATASIZE PUSH1 0x0 DUP1 RETURNDATACOPY RETURNDATASIZE PUSH1 0x0 REVERT JUMPDEST POP POP POP JUMP JUMPDEST PUSH1 0x4 PUSH1 0x0 SWAP1 SLOAD SWAP1 PUSH2 0x100 EXP SWAP1 DIV PUSH1 0xFF AND DUP2 JUMP JUMPDEST PUSH1 0x0 DUP2 SWAP1 POP SWAP2 SWAP1 POP JUMP JUMPDEST PUSH2 0x6C8 DUP2 PUSH2 0x6B5 JUMP JUMPDEST DUP3 MSTORE POP POP JUMP JUMPDEST PUSH1 0x0 PUSH1 0x20 DUP3 ADD SWAP1 POP PUSH2 0x6E3 PUSH1 0x0 DUP4 ADD DUP5 PUSH2 0x6BF JUMP JUMPDEST SWAP3 SWAP2 POP POP JUMP JUMPDEST PUSH1 0x0 PUSH20 0xFFFFFFFFFFFFFFFFFFFFFFFFFFFFFFFFFFFFFFFF DUP3 AND SWAP1 POP SWAP2 SWAP1 POP JUMP JUMPDEST PUSH1 0x0 PUSH2 0x714 DUP3 PUSH2 0x6E9 JUMP JUMPDEST SWAP1 POP SWAP2 SWAP1 POP JUMP JUMPDEST PUSH2 0x724 DUP2 PUSH2 0x709 JUMP JUMPDEST DUP3 MSTORE POP POP JUMP JUMPDEST PUSH1 0x0 PUSH1 0x20 DUP3 ADD SWAP1 POP PUSH2 0x73F PUSH1 0x0 DUP4 ADD DUP5 PUSH2 0x71B JUMP JUMPDEST SWAP3 SWAP2 POP POP JUMP JUMPDEST PUSH32 0x4E487B7100000000000000000000000000000000000000000000000000000000 PUSH1 0x0 MSTORE PUSH1 0x21 PUSH1 0x4 MSTORE PUSH1 0x24 PUSH1 0x0 REVERT JUMPDEST PUSH1 0x4 DUP2 LT PUSH2 0x785 JUMPI PUSH2 0x784 PUSH2 0x745 JUMP JUMPDEST JUMPDEST POP JUMP JUMPDEST PUSH1 0x0 DUP2 SWAP1 POP PUSH2 0x796 DUP3 PUSH2 0x774 JUMP JUMPDEST SWAP2 SWAP1 POP JUMP JUMPDEST PUSH1 0x0 PUSH2 0x7A6 DUP3 PUSH2 0x788 JUMP JUMPDEST SWAP1 POP SWAP2 SWAP1 POP JUMP JUMPDEST PUSH2 0x7B6 DUP2 PUSH2 0x79B JUMP JUMPDEST DUP3 MSTORE POP POP JUMP JUMPDEST PUSH1 0x0 PUSH1 0x20 DUP3 ADD SWAP1 POP PUSH2 0x7D1 PUSH1 0x0 DUP4 ADD DUP5 PUSH2 0x7AD JUMP JUMPDEST SWAP3 SWAP2 POP POP JUMP JUMPDEST PUSH1 0x0 DUP3 DUP3 MSTORE PUSH1 0x20 DUP3 ADD SWAP1 POP SWAP3 SWAP2 POP POP JUMP JUMPDEST PUSH32 0x43616C6C6572206F6620746869732066756E6374696F6E206D75737420626520 PUSH1 0x0 DUP3 ADD MSTORE PUSH32 0x62757965722E0000000000000000000000000000000000000000000000000000 PUSH1 0x20 DUP3 ADD MSTORE POP JUMP JUMPDEST PUSH1 0x0 PUSH2 0x844 PUSH1 0x26 DUP4 PUSH2 0x7D7 JUMP JUMPDEST SWAP2 POP PUSH2 0x84F DUP3 PUSH2 0x7E8 JUMP JUMPDEST PUSH1 0x40 DUP3 ADD SWAP1 POP SWAP2 SWAP1 POP JUMP JUMPDEST PUSH1 0x0 PUSH1 0x20 DUP3 ADD SWAP1 POP DUP2 DUP2 SUB PUSH1 0x0 DUP4 ADD MSTORE PUSH2 0x873 DUP2 PUSH2 0x837 JUMP JUMPDEST SWAP1 POP SWAP2 SWAP1 POP JUMP JUMPDEST PUSH32 0x4F72646572206D75737420756E7061696420746F20626520706169642E000000 PUSH1 0x0 DUP3 ADD MSTORE POP JUMP JUMPDEST PUSH1 0x0 PUSH2 0x8B0 PUSH1 0x1D DUP4 PUSH2 0x7D7 JUMP JUMPDEST SWAP2 POP PUSH2 0x8BB DUP3 PUSH2 0x87A JUMP JUMPDEST PUSH1 0x20 DUP3 ADD SWAP1 POP SWAP2 SWAP1 POP JUMP JUMPDEST PUSH1 0x0 PUSH1 0x20 DUP3 ADD SWAP1 POP DUP2 DUP2 SUB PUSH1 0x0 DUP4 ADD MSTORE PUSH2 0x8DF DUP2 PUSH2 0x8A3 JUMP JUMPDEST SWAP1 POP SWAP2 SWAP1 POP JUMP JUMPDEST PUSH32 0x506179656D656E742076616C7565206D61737420657175616C20746F20746865 PUSH1 0x0 DUP3 ADD MSTORE PUSH32 0x20636F73742E0000000000000000000000000000000000000000000000000000 PUSH1 0x20 DUP3 ADD MSTORE POP JUMP JUMPDEST PUSH1 0x0 PUSH2 0x942 PUSH1 0x26 DUP4 PUSH2 0x7D7 JUMP JUMPDEST SWAP2 POP PUSH2 0x94D DUP3 PUSH2 0x8E6 JUMP JUMPDEST PUSH1 0x40 DUP3 ADD SWAP1 POP SWAP2 SWAP1 POP JUMP JUMPDEST PUSH1 0x0 PUSH1 0x20 DUP3 ADD SWAP1 POP DUP2 DUP2 SUB PUSH1 0x0 DUP4 ADD MSTORE PUSH2 0x971 DUP2 PUSH2 0x935 JUMP JUMPDEST SWAP1 POP SWAP2 SWAP1 POP JUMP JUMPDEST PUSH32 0x4F72646572206D7573742062652070616964206265666F7265206265696E6720 PUSH1 0x0 DUP3 ADD MSTORE PUSH32 0x7069636B65642075702E00000000000000000000000000000000000000000000 PUSH1 0x20 DUP3 ADD MSTORE POP JUMP JUMPDEST PUSH1 0x0 PUSH2 0x9D4 PUSH1 0x2A DUP4 PUSH2 0x7D7 JUMP JUMPDEST SWAP2 POP PUSH2 0x9DF DUP3 PUSH2 0x978 JUMP JUMPDEST PUSH1 0x40 DUP3 ADD SWAP1 POP SWAP2 SWAP1 POP JUMP JUMPDEST PUSH1 0x0 PUSH1 0x20 DUP3 ADD SWAP1 POP DUP2 DUP2 SUB PUSH1 0x0 DUP4 ADD MSTORE PUSH2 0xA03 DUP2 PUSH2 0x9C7 JUMP JUMPDEST SWAP1 POP SWAP2 SWAP1 POP JUMP JUMPDEST PUSH32 0x4F72646572206D757374206265207069636B656420757020746F206265206465 PUSH1 0x0 DUP3 ADD MSTORE PUSH32 0x6C6976657265642E000000000000000000000000000000000000000000000000 PUSH1 0x20 DUP3 ADD MSTORE POP JUMP JUMPDEST PUSH1 0x0 PUSH2 0xA66 PUSH1 0x28 DUP4 PUSH2 0x7D7 JUMP JUMPDEST SWAP2 POP PUSH2 0xA71 DUP3 PUSH2 0xA0A JUMP JUMPDEST PUSH1 0x40 DUP3 ADD SWAP1 POP SWAP2 SWAP1 POP JUMP JUMPDEST PUSH1 0x0 PUSH1 0x20 DUP3 ADD SWAP1 POP DUP2 DUP2 SUB PUSH1 0x0 DUP4 ADD MSTORE PUSH2 0xA95 DUP2 PUSH2 0xA59 JUMP JUMPDEST SWAP1 POP SWAP2 SWAP1 POP JUMP JUMPDEST PUSH32 0x4E487B7100000000000000000000000000000000000000000000000000000000 PUSH1 0x0 MSTORE PUSH1 0x11 PUSH1 0x4 MSTORE PUSH1 0x24 PUSH1 0x0 REVERT JUMPDEST PUSH1 0x0 PUSH2 0xAD6 DUP3 PUSH2 0x6B5 JUMP JUMPDEST SWAP2 POP PUSH2 0xAE1 DUP4 PUSH2 0x6B5 JUMP JUMPDEST SWAP3 POP DUP3 DUP3 MUL PUSH2 0xAEF DUP2 PUSH2 0x6B5 JUMP JUMPDEST SWAP2 POP DUP3 DUP3 DIV DUP5 EQ DUP4 ISZERO OR PUSH2 0xB06 JUMPI PUSH2 0xB05 PUSH2 0xA9C JUMP JUMPDEST JUMPDEST POP SWAP3 SWAP2 POP POP JUMP JUMPDEST PUSH32 0x4E487B7100000000000000000000000000000000000000000000000000000000 PUSH1 0x0 MSTORE PUSH1 0x12 PUSH1 0x4 MSTORE PUSH1 0x24 PUSH1 0x0 REVERT JUMPDEST PUSH1 0x0 PUSH2 0xB47 DUP3 PUSH2 0x6B5 JUMP JUMPDEST SWAP2 POP PUSH2 0xB52 DUP4 PUSH2 0x6B5 JUMP JUMPDEST SWAP3 POP DUP3 PUSH2 0xB62 JUMPI PUSH2 0xB61 PUSH2 0xB0D JUMP JUMPDEST JUMPDEST DUP3 DUP3 DIV SWAP1 POP SWAP3 SWAP2 POP POP JUMP JUMPDEST PUSH1 0x0 PUSH2 0xB78 DUP3 PUSH2 0x6B5 JUMP JUMPDEST SWAP2 POP PUSH2 0xB83 DUP4 PUSH2 0x6B5 JUMP JUMPDEST SWAP3 POP DUP3 DUP3 SUB SWAP1 POP DUP2 DUP2 GT ISZERO PUSH2 0xB9B JUMPI PUSH2 0xB9A PUSH2 0xA9C JUMP JUMPDEST JUMPDEST SWAP3 SWAP2 POP POP JUMP INVALID LOG2 PUSH5 0x6970667358 0x22 SLT KECCAK256 0xAE EXTCODECOPY 0x4C 0x27 OR GASPRICE CREATE2 PC RETURNDATASIZE GAS 0xDE SWAP14 SLOAD 0xDC 0x28 0xED 0x4D SWAP16 0xE1 JUMPI SGT MOD CALLDATACOPY EXTCODECOPY 0x2F ADDMOD 0xB6 0x2A 0xD2 0x24 ADDMOD GASPRICE PUSH5 0x736F6C6343 STOP ADDMOD SLT STOP CALLER "
				},
				"gasEstimates": {
					"creation": {
						"codeDepositCost": "606200",
						"executionCost": "infinite",
						"totalCost": "infinite"
					},
					"external": {
						"buyer()": "2514",
						"cost()": "2430",
						"courier()": "2581",
						"delivered()": "infinite",
						"owner()": "2533",
						"pay()": "30933",
						"pickUpPackage()": "50953",
						"state()": "2626"
					}
				},
				"methodIdentifiers": {
					"buyer()": "7150d8ae",
					"cost()": "13faede6",
					"courier()": "50a7f7d3",
					"delivered()": "bbdfbfba",
					"owner()": "8da5cb5b",
					"pay()": "1b9265b8",
					"pickUpPackage()": "34791416",
					"state()": "c19d93fb"
				}
			},
			"storageLayout": {
				"storage": [
					{
						"astId": 3,
						"contract": "order.sol:Order",
						"label": "owner",
						"offset": 0,
						"slot": "0",
						"type": "t_address"
					},
					{
						"astId": 5,
						"contract": "order.sol:Order",
						"label": "buyer",
						"offset": 0,
						"slot": "1",
						"type": "t_address"
					},
					{
						"astId": 7,
						"contract": "order.sol:Order",
						"label": "courier",
						"offset": 0,
						"slot": "2",
						"type": "t_address"
					},
					{
						"astId": 9,
						"contract": "order.sol:Order",
						"label": "cost",
						"offset": 0,
						"slot": "3",
						"type": "t_uint256"
					},
					{
						"astId": 17,
						"contract": "order.sol:Order",
						"label": "state",
						"offset": 0,
						"slot": "4",
						"type": "t_enum(State)14"
					}
				],
				"types": {
					"t_address": {
						"encoding": "inplace",
						"label": "address",
						"numberOfBytes": "20"
					},
					"t_enum(State)14": {
						"encoding": "inplace",
						"label": "enum Order.State",
						"numberOfBytes": "1"
					},
					"t_uint256": {
						"encoding": "inplace",
						"label": "uint256",
						"numberOfBytes": "32"
					}
				}
			},
			"userdoc": {
				"kind": "user",
				"methods": {},
				"version": 1
			}
		}
	}
}